{
	"data": {
		"bytecode": {
			"linkReferences": {},
			"object": "608060405234801561000f575f80fd5b50600180546001600160a01b031916736966b0e55883d49bfb24539356a2f8a673e02039179055610247806100435f395ff3fe608060405260043610610049575f3560e01c8063171f7bf21461004d57806356d5d47514610081578063ac2eba9814610096578063d5438eae146100aa578063fdf04331146100e1575b5f80fd5b348015610058575f80fd5b5061006e610067366004610170565b5f81905590565b6040519081526020015b60405180910390f35b61009461008f366004610187565b6100f4565b005b3480156100a1575f80fd5b5061006e5f5481565b3480156100b5575f80fd5b506001546100c9906001600160a01b031681565b6040516001600160a01b039091168152602001610078565b3480156100ec575f80fd5b505f5461006e565b6001546001600160a01b0316331461015c5760405162461bcd60e51b815260206004820152602160248201527f4d61696c626f78436c69656e743a2073656e646572206e6f74206d61696c626f6044820152600f60fb1b606482015260840160405180910390fd5b61016881830183610170565b5f5550505050565b5f60208284031215610180575f80fd5b5035919050565b5f805f806060858703121561019a575f80fd5b843563ffffffff811681146101ad575f80fd5b935060208501359250604085013567ffffffffffffffff808211156101d0575f80fd5b818701915087601f8301126101e3575f80fd5b8135818111156101f1575f80fd5b886020828501011115610202575f80fd5b9598949750506020019450505056fea264697066735822122071d0a02e58dda73b9755a52bbbb9f0232892a81be8409ec144916abf976acd9764736f6c63430008170033",
			"opcodes": "PUSH1 0x80 PUSH1 0x40 MSTORE CALLVALUE DUP1 ISZERO PUSH2 0xF JUMPI PUSH0 DUP1 REVERT JUMPDEST POP PUSH1 0x1 DUP1 SLOAD PUSH1 0x1 PUSH1 0x1 PUSH1 0xA0 SHL SUB NOT AND PUSH20 0x6966B0E55883D49BFB24539356A2F8A673E02039 OR SWAP1 SSTORE PUSH2 0x247 DUP1 PUSH2 0x43 PUSH0 CODECOPY PUSH0 RETURN INVALID PUSH1 0x80 PUSH1 0x40 MSTORE PUSH1 0x4 CALLDATASIZE LT PUSH2 0x49 JUMPI PUSH0 CALLDATALOAD PUSH1 0xE0 SHR DUP1 PUSH4 0x171F7BF2 EQ PUSH2 0x4D JUMPI DUP1 PUSH4 0x56D5D475 EQ PUSH2 0x81 JUMPI DUP1 PUSH4 0xAC2EBA98 EQ PUSH2 0x96 JUMPI DUP1 PUSH4 0xD5438EAE EQ PUSH2 0xAA JUMPI DUP1 PUSH4 0xFDF04331 EQ PUSH2 0xE1 JUMPI JUMPDEST PUSH0 DUP1 REVERT JUMPDEST CALLVALUE DUP1 ISZERO PUSH2 0x58 JUMPI PUSH0 DUP1 REVERT JUMPDEST POP PUSH2 0x6E PUSH2 0x67 CALLDATASIZE PUSH1 0x4 PUSH2 0x170 JUMP JUMPDEST PUSH0 DUP2 SWAP1 SSTORE SWAP1 JUMP JUMPDEST PUSH1 0x40 MLOAD SWAP1 DUP2 MSTORE PUSH1 0x20 ADD JUMPDEST PUSH1 0x40 MLOAD DUP1 SWAP2 SUB SWAP1 RETURN JUMPDEST PUSH2 0x94 PUSH2 0x8F CALLDATASIZE PUSH1 0x4 PUSH2 0x187 JUMP JUMPDEST PUSH2 0xF4 JUMP JUMPDEST STOP JUMPDEST CALLVALUE DUP1 ISZERO PUSH2 0xA1 JUMPI PUSH0 DUP1 REVERT JUMPDEST POP PUSH2 0x6E PUSH0 SLOAD DUP2 JUMP JUMPDEST CALLVALUE DUP1 ISZERO PUSH2 0xB5 JUMPI PUSH0 DUP1 REVERT JUMPDEST POP PUSH1 0x1 SLOAD PUSH2 0xC9 SWAP1 PUSH1 0x1 PUSH1 0x1 PUSH1 0xA0 SHL SUB AND DUP2 JUMP JUMPDEST PUSH1 0x40 MLOAD PUSH1 0x1 PUSH1 0x1 PUSH1 0xA0 SHL SUB SWAP1 SWAP2 AND DUP2 MSTORE PUSH1 0x20 ADD PUSH2 0x78 JUMP JUMPDEST CALLVALUE DUP1 ISZERO PUSH2 0xEC JUMPI PUSH0 DUP1 REVERT JUMPDEST POP PUSH0 SLOAD PUSH2 0x6E JUMP JUMPDEST PUSH1 0x1 SLOAD PUSH1 0x1 PUSH1 0x1 PUSH1 0xA0 SHL SUB AND CALLER EQ PUSH2 0x15C JUMPI PUSH1 0x40 MLOAD PUSH3 0x461BCD PUSH1 0xE5 SHL DUP2 MSTORE PUSH1 0x20 PUSH1 0x4 DUP3 ADD MSTORE PUSH1 0x21 PUSH1 0x24 DUP3 ADD MSTORE PUSH32 0x4D61696C626F78436C69656E743A2073656E646572206E6F74206D61696C626F PUSH1 0x44 DUP3 ADD MSTORE PUSH1 0xF PUSH1 0xFB SHL PUSH1 0x64 DUP3 ADD MSTORE PUSH1 0x84 ADD PUSH1 0x40 MLOAD DUP1 SWAP2 SUB SWAP1 REVERT JUMPDEST PUSH2 0x168 DUP2 DUP4 ADD DUP4 PUSH2 0x170 JUMP JUMPDEST PUSH0 SSTORE POP POP POP POP JUMP JUMPDEST PUSH0 PUSH1 0x20 DUP3 DUP5 SUB SLT ISZERO PUSH2 0x180 JUMPI PUSH0 DUP1 REVERT JUMPDEST POP CALLDATALOAD SWAP2 SWAP1 POP JUMP JUMPDEST PUSH0 DUP1 PUSH0 DUP1 PUSH1 0x60 DUP6 DUP8 SUB SLT ISZERO PUSH2 0x19A JUMPI PUSH0 DUP1 REVERT JUMPDEST DUP5 CALLDATALOAD PUSH4 0xFFFFFFFF DUP2 AND DUP2 EQ PUSH2 0x1AD JUMPI PUSH0 DUP1 REVERT JUMPDEST SWAP4 POP PUSH1 0x20 DUP6 ADD CALLDATALOAD SWAP3 POP PUSH1 0x40 DUP6 ADD CALLDATALOAD PUSH8 0xFFFFFFFFFFFFFFFF DUP1 DUP3 GT ISZERO PUSH2 0x1D0 JUMPI PUSH0 DUP1 REVERT JUMPDEST DUP2 DUP8 ADD SWAP2 POP DUP8 PUSH1 0x1F DUP4 ADD SLT PUSH2 0x1E3 JUMPI PUSH0 DUP1 REVERT JUMPDEST DUP2 CALLDATALOAD DUP2 DUP2 GT ISZERO PUSH2 0x1F1 JUMPI PUSH0 DUP1 REVERT JUMPDEST DUP9 PUSH1 0x20 DUP3 DUP6 ADD ADD GT ISZERO PUSH2 0x202 JUMPI PUSH0 DUP1 REVERT JUMPDEST SWAP6 SWAP9 SWAP5 SWAP8 POP POP PUSH1 0x20 ADD SWAP5 POP POP POP JUMP INVALID LOG2 PUSH5 0x6970667358 0x22 SLT KECCAK256 PUSH18 0xD0A02E58DDA73B9755A52BBBB9F0232892A8 SHL 0xE8 BLOCKHASH SWAP15 0xC1 PREVRANDAO SWAP2 PUSH11 0xBF976ACD9764736F6C6343 STOP ADDMOD OR STOP CALLER "
		},
		"gasEstimates": {
			"creation": {
				"codeDepositCost": "116600",
				"executionCost": "24399",
				"totalCost": "140999"
			},
			"external": {
				"currentStateRoot()": "2304",
				"getCurrentStateRootHash()": "2345",
				"handle(uint32,bytes32,bytes)": "24765",
				"mailbox()": "2380",
				"setStateRootHash(bytes32)": "22342"
			}
		},
		"methodIdentifiers": {
			"currentStateRoot()": "ac2eba98",
			"getCurrentStateRootHash()": "fdf04331",
			"handle(uint32,bytes32,bytes)": "56d5d475",
			"mailbox()": "d5438eae",
			"setStateRootHash(bytes32)": "171f7bf2"
		}
	},
	"abi": [
		{
			"inputs": [],
			"stateMutability": "nonpayable",
			"type": "constructor"
		},
		{
			"inputs": [],
			"name": "currentStateRoot",
			"outputs": [
				{
					"internalType": "bytes32",
					"name": "",
					"type": "bytes32"
				}
			],
			"stateMutability": "view",
			"type": "function"
		},
		{
			"inputs": [],
			"name": "getCurrentStateRootHash",
			"outputs": [
				{
					"internalType": "bytes32",
					"name": "",
					"type": "bytes32"
				}
			],
			"stateMutability": "view",
			"type": "function"
		},
		{
			"inputs": [
				{
					"internalType": "uint32",
					"name": "",
					"type": "uint32"
				},
				{
					"internalType": "bytes32",
					"name": "",
					"type": "bytes32"
				},
				{
					"internalType": "bytes",
					"name": "_message",
					"type": "bytes"
				}
			],
			"name": "handle",
			"outputs": [],
			"stateMutability": "payable",
			"type": "function"
		},
		{
			"inputs": [],
			"name": "mailbox",
			"outputs": [
				{
					"internalType": "address",
					"name": "",
					"type": "address"
				}
			],
			"stateMutability": "view",
			"type": "function"
		},
		{
			"inputs": [
				{
					"internalType": "bytes32",
					"name": "_newStateRoot",
					"type": "bytes32"
				}
			],
			"name": "setStateRootHash",
			"outputs": [
				{
					"internalType": "bytes32",
					"name": "stateRoot",
					"type": "bytes32"
				}
			],
			"stateMutability": "nonpayable",
			"type": "function"
		}
	]
}