{
	"L2Inbox.sol": {
		"L2Inbox": {
			"abi": [
				{
					"inputs": [],
					"name": "currentStateRoot",
					"outputs": [
						{
							"internalType": "bytes32",
							"name": "",
							"type": "bytes32"
						}
					],
					"stateMutability": "view",
					"type": "function"
				},
				{
					"inputs": [],
					"name": "getCurrentStateRootHash",
					"outputs": [
						{
							"internalType": "bytes32",
							"name": "",
							"type": "bytes32"
						}
					],
					"stateMutability": "view",
					"type": "function"
				},
				{
					"inputs": [
						{
							"internalType": "bytes32",
							"name": "_newStateRoot",
							"type": "bytes32"
						}
					],
					"name": "setStateRootHash",
					"outputs": [
						{
							"internalType": "bytes32",
							"name": "stateRoot",
							"type": "bytes32"
						}
					],
					"stateMutability": "nonpayable",
					"type": "function"
				}
			],
			"devdoc": {
				"kind": "dev",
				"methods": {
					"setStateRootHash(bytes32)": {
						"details": "called by the L1-L2 messenger",
						"params": {
							"_newStateRoot": "current state root for the keystore"
						}
					}
				},
				"title": "L2Inbox This contract is a L2 inbox that stores the currentStateRootHash & is updated via the Hook through native Bridges",
				"version": 1
			},
			"evm": {
				"assembly": "    /* \"L2Inbox.sol\":341:938  contract L2Inbox {... */\n  mstore(0x40, 0x80)\n  callvalue\n  dup1\n  iszero\n  tag_1\n  jumpi\n  0x00\n  dup1\n  revert\ntag_1:\n  pop\n  dataSize(sub_0)\n  dup1\n  dataOffset(sub_0)\n  0x00\n  codecopy\n  0x00\n  return\nstop\n\nsub_0: assembly {\n        /* \"L2Inbox.sol\":341:938  contract L2Inbox {... */\n      mstore(0x40, 0x80)\n      callvalue\n      dup1\n      iszero\n      tag_1\n      jumpi\n      0x00\n      dup1\n      revert\n    tag_1:\n      pop\n      jumpi(tag_2, lt(calldatasize, 0x04))\n      shr(0xe0, calldataload(0x00))\n      dup1\n      0x171f7bf2\n      eq\n      tag_3\n      jumpi\n      dup1\n      0xac2eba98\n      eq\n      tag_4\n      jumpi\n      dup1\n      0xfdf04331\n      eq\n      tag_5\n      jumpi\n    tag_2:\n      0x00\n      dup1\n      revert\n        /* \"L2Inbox.sol\":601:782  function setStateRootHash(... */\n    tag_3:\n      tag_6\n      tag_7\n      calldatasize\n      0x04\n      tag_8\n      jump\t// in\n    tag_7:\n        /* \"L2Inbox.sol\":680:697  bytes32 stateRoot */\n      0x00\n        /* \"L2Inbox.sol\":709:741  currentStateRoot = _newStateRoot */\n      dup2\n      swap1\n      sstore\n        /* \"L2Inbox.sol\":728:741  _newStateRoot */\n      swap1\n        /* \"L2Inbox.sol\":601:782  function setStateRootHash(... */\n      jump\n    tag_6:\n      mload(0x40)\n        /* \"#utility.yul\":345:370   */\n      swap1\n      dup2\n      mstore\n        /* \"#utility.yul\":333:335   */\n      0x20\n        /* \"#utility.yul\":318:336   */\n      add\n        /* \"L2Inbox.sol\":601:782  function setStateRootHash(... */\n      mload(0x40)\n      dup1\n      swap2\n      sub\n      swap1\n      return\n        /* \"L2Inbox.sol\":364:395  bytes32 public currentStateRoot */\n    tag_4:\n      tag_6\n      sload(0x00)\n      dup2\n      jump\n        /* \"L2Inbox.sol\":831:936  function getCurrentStateRootHash() public view returns (bytes32) {... */\n    tag_5:\n        /* \"L2Inbox.sol\":887:894  bytes32 */\n      0x00\n        /* \"L2Inbox.sol\":913:929  currentStateRoot */\n      sload\n        /* \"L2Inbox.sol\":831:936  function getCurrentStateRootHash() public view returns (bytes32) {... */\n      jump(tag_6)\n        /* \"#utility.yul\":14:194   */\n    tag_8:\n        /* \"#utility.yul\":73:79   */\n      0x00\n        /* \"#utility.yul\":126:128   */\n      0x20\n        /* \"#utility.yul\":114:123   */\n      dup3\n        /* \"#utility.yul\":105:112   */\n      dup5\n        /* \"#utility.yul\":101:124   */\n      sub\n        /* \"#utility.yul\":97:129   */\n      slt\n        /* \"#utility.yul\":94:146   */\n      iszero\n      tag_22\n      jumpi\n        /* \"#utility.yul\":142:143   */\n      0x00\n        /* \"#utility.yul\":139:140   */\n      dup1\n        /* \"#utility.yul\":132:144   */\n      revert\n        /* \"#utility.yul\":94:146   */\n    tag_22:\n      pop\n        /* \"#utility.yul\":165:188   */\n      calldataload\n      swap2\n        /* \"#utility.yul\":14:194   */\n      swap1\n      pop\n      jump\t// out\n\n    auxdata: 0xa2646970667358221220d3b99fbfdbc1cc4b5d35ffe78bf7ecf4e926fb0173b802cfe5119f69c129991864736f6c63430008170033\n}\n",
				"bytecode": {
					"linkReferences": {},
					"object": "608060405234801561000f575f80fd5b5060bb8061001c5f395ff3fe6080604052348015600e575f80fd5b5060043610603a575f3560e01c8063171f7bf214603e578063ac2eba98146062578063fdf04331146069575b5f80fd5b60506049366004606f565b5f81905590565b60405190815260200160405180910390f35b60505f5481565b5f546050565b5f60208284031215607e575f80fd5b503591905056fea2646970667358221220d3b99fbfdbc1cc4b5d35ffe78bf7ecf4e926fb0173b802cfe5119f69c129991864736f6c63430008170033",
					"opcodes": "PUSH1 0x80 PUSH1 0x40 MSTORE CALLVALUE DUP1 ISZERO PUSH2 0xF JUMPI PUSH0 DUP1 REVERT JUMPDEST POP PUSH1 0xBB DUP1 PUSH2 0x1C PUSH0 CODECOPY PUSH0 RETURN INVALID PUSH1 0x80 PUSH1 0x40 MSTORE CALLVALUE DUP1 ISZERO PUSH1 0xE JUMPI PUSH0 DUP1 REVERT JUMPDEST POP PUSH1 0x4 CALLDATASIZE LT PUSH1 0x3A JUMPI PUSH0 CALLDATALOAD PUSH1 0xE0 SHR DUP1 PUSH4 0x171F7BF2 EQ PUSH1 0x3E JUMPI DUP1 PUSH4 0xAC2EBA98 EQ PUSH1 0x62 JUMPI DUP1 PUSH4 0xFDF04331 EQ PUSH1 0x69 JUMPI JUMPDEST PUSH0 DUP1 REVERT JUMPDEST PUSH1 0x50 PUSH1 0x49 CALLDATASIZE PUSH1 0x4 PUSH1 0x6F JUMP JUMPDEST PUSH0 DUP2 SWAP1 SSTORE SWAP1 JUMP JUMPDEST PUSH1 0x40 MLOAD SWAP1 DUP2 MSTORE PUSH1 0x20 ADD PUSH1 0x40 MLOAD DUP1 SWAP2 SUB SWAP1 RETURN JUMPDEST PUSH1 0x50 PUSH0 SLOAD DUP2 JUMP JUMPDEST PUSH0 SLOAD PUSH1 0x50 JUMP JUMPDEST PUSH0 PUSH1 0x20 DUP3 DUP5 SUB SLT ISZERO PUSH1 0x7E JUMPI PUSH0 DUP1 REVERT JUMPDEST POP CALLDATALOAD SWAP2 SWAP1 POP JUMP INVALID LOG2 PUSH5 0x6970667358 0x22 SLT KECCAK256 0xD3 0xB9 SWAP16 0xBF 0xDB 0xC1 0xCC 0x4B 0x5D CALLDATALOAD SELFDESTRUCT 0xE7 DUP12 0xF7 0xEC DELEGATECALL 0xE9 0x26 0xFB ADD PUSH20 0xB802CFE5119F69C129991864736F6C6343000817 STOP CALLER "
				},
				"gasEstimates": {
					"creation": {
						"codeDepositCost": "37400",
						"executionCost": "85",
						"totalCost": "37485"
					},
					"external": {
						"currentStateRoot()": "2281",
						"getCurrentStateRootHash()": "2300",
						"setStateRootHash(bytes32)": "22341"
					}
				},
				"methodIdentifiers": {
					"currentStateRoot()": "ac2eba98",
					"getCurrentStateRootHash()": "fdf04331",
					"setStateRootHash(bytes32)": "171f7bf2"
				}
			},
			"storageLayout": {
				"storage": [
					{
						"astId": 4,
						"contract": "L2Inbox.sol:L2Inbox",
						"label": "currentStateRoot",
						"offset": 0,
						"slot": "0",
						"type": "t_bytes32"
					}
				],
				"types": {
					"t_bytes32": {
						"encoding": "inplace",
						"label": "bytes32",
						"numberOfBytes": "32"
					}
				}
			},
			"userdoc": {
				"kind": "user",
				"methods": {
					"setStateRootHash(bytes32)": {
						"notice": "Set State Root hashonly Owner/Operator are authorised"
					}
				},
				"notice": "The setStateRootHash function is not restricted currently to any specific sender , but ideally should be the L1-L2 messenger",
				"version": 1
			}
		}
	}
}