{
	"Hook.sol": {
		"Hook": {
			"abi": [
				{
					"inputs": [
						{
							"internalType": "address",
							"name": "_l2InboxAddress",
							"type": "address"
						}
					],
					"stateMutability": "nonpayable",
					"type": "constructor"
				},
				{
					"inputs": [],
					"name": "L2InboxAddress",
					"outputs": [
						{
							"internalType": "address",
							"name": "",
							"type": "address"
						}
					],
					"stateMutability": "view",
					"type": "function"
				},
				{
					"inputs": [],
					"name": "optimismMessenger",
					"outputs": [
						{
							"internalType": "contract ICrossDomainMessenger",
							"name": "",
							"type": "address"
						}
					],
					"stateMutability": "view",
					"type": "function"
				},
				{
					"inputs": [
						{
							"components": [
								{
									"internalType": "uint256",
									"name": "appId",
									"type": "uint256"
								},
								{
									"internalType": "bytes32",
									"name": "blocksRoot",
									"type": "bytes32"
								},
								{
									"internalType": "uint32",
									"name": "sequenceNumber",
									"type": "uint32"
								},
								{
									"internalType": "uint32",
									"name": "width",
									"type": "uint32"
								},
								{
									"internalType": "bytes32",
									"name": "batchRoot",
									"type": "bytes32"
								},
								{
									"internalType": "bytes",
									"name": "signature",
									"type": "bytes"
								},
								{
									"components": [
										{
											"internalType": "bytes",
											"name": "blobID",
											"type": "bytes"
										},
										{
											"internalType": "enum IAppInbox.DAProvider",
											"name": "da",
											"type": "uint8"
										}
									],
									"internalType": "struct IAppInbox.BlobPointer",
									"name": "daPointer",
									"type": "tuple"
								},
								{
									"components": [
										{
											"internalType": "bytes32",
											"name": "blockHash",
											"type": "bytes32"
										},
										{
											"internalType": "bytes32",
											"name": "parentHash",
											"type": "bytes32"
										},
										{
											"internalType": "bytes32",
											"name": "actionRoot",
											"type": "bytes32"
										},
										{
											"internalType": "bytes32",
											"name": "acknowledgementRoot",
											"type": "bytes32"
										},
										{
											"internalType": "bytes32",
											"name": "stateRoot",
											"type": "bytes32"
										},
										{
											"internalType": "bytes32",
											"name": "hooksRoot",
											"type": "bytes32"
										},
										{
											"internalType": "uint256",
											"name": "height",
											"type": "uint256"
										},
										{
											"internalType": "uint256",
											"name": "timestamp",
											"type": "uint256"
										},
										{
											"internalType": "bytes",
											"name": "vulcanLeaderSignature",
											"type": "bytes"
										},
										{
											"internalType": "bytes",
											"name": "operatorSignature",
											"type": "bytes"
										},
										{
											"internalType": "bytes",
											"name": "builderSignature",
											"type": "bytes"
										},
										{
											"internalType": "uint256",
											"name": "executionStatus",
											"type": "uint256"
										}
									],
									"internalType": "struct IAppInbox.BlockHeader",
									"name": "firstBlock",
									"type": "tuple"
								},
								{
									"components": [
										{
											"internalType": "bytes32",
											"name": "blockHash",
											"type": "bytes32"
										},
										{
											"internalType": "bytes32",
											"name": "parentHash",
											"type": "bytes32"
										},
										{
											"internalType": "bytes32",
											"name": "actionRoot",
											"type": "bytes32"
										},
										{
											"internalType": "bytes32",
											"name": "acknowledgementRoot",
											"type": "bytes32"
										},
										{
											"internalType": "bytes32",
											"name": "stateRoot",
											"type": "bytes32"
										},
										{
											"internalType": "bytes32",
											"name": "hooksRoot",
											"type": "bytes32"
										},
										{
											"internalType": "uint256",
											"name": "height",
											"type": "uint256"
										},
										{
											"internalType": "uint256",
											"name": "timestamp",
											"type": "uint256"
										},
										{
											"internalType": "bytes",
											"name": "vulcanLeaderSignature",
											"type": "bytes"
										},
										{
											"internalType": "bytes",
											"name": "operatorSignature",
											"type": "bytes"
										},
										{
											"internalType": "bytes",
											"name": "builderSignature",
											"type": "bytes"
										},
										{
											"internalType": "uint256",
											"name": "executionStatus",
											"type": "uint256"
										}
									],
									"internalType": "struct IAppInbox.BlockHeader",
									"name": "lastBlock",
									"type": "tuple"
								}
							],
							"internalType": "struct IAppInbox.Batch",
							"name": "_batch",
							"type": "tuple"
						},
						{
							"internalType": "address",
							"name": "",
							"type": "address"
						}
					],
					"name": "postSubmit",
					"outputs": [],
					"stateMutability": "nonpayable",
					"type": "function"
				},
				{
					"inputs": [
						{
							"internalType": "bytes32",
							"name": "_rootHash",
							"type": "bytes32"
						}
					],
					"name": "sendRootToOptimism",
					"outputs": [],
					"stateMutability": "payable",
					"type": "function"
				}
			],
			"devdoc": {
				"kind": "dev",
				"methods": {},
				"version": 1
			},
			"evm": {
				"assembly": "    /* \"Hook.sol\":289:1212  contract Hook is IBaseHook {... */\n  mstore(0x40, 0x80)\n    /* \"Hook.sol\":410:622  constructor(address _l2InboxAddress) {... */\n  callvalue\n  dup1\n  iszero\n  tag_1\n  jumpi\n  0x00\n  dup1\n  revert\ntag_1:\n  pop\n  mload(0x40)\n  sub(codesize, bytecodeSize)\n  dup1\n  bytecodeSize\n  dup4\n  codecopy\n  dup2\n  add\n  0x40\n  dup2\n  swap1\n  mstore\n  tag_2\n  swap2\n  tag_3\n  jump\t// in\ntag_2:\n    /* \"Hook.sol\":457:474  optimismMessenger */\n  0x00\n    /* \"Hook.sol\":457:573  optimismMessenger = ICrossDomainMessenger(... */\n  dup1\n  sload\n    /* \"Hook.sol\":520:562  0x58Cc85b8D04EA49cC6DBd3CbFFd00B4B8D6cb3ef */\n  0x58cc85b8d04ea49cc6dbd3cbffd00b4b8d6cb3ef\n  not(sub(shl(0xa0, 0x01), 0x01))\n    /* \"Hook.sol\":457:573  optimismMessenger = ICrossDomainMessenger(... */\n  swap2\n  dup3\n  and\n  or\n  swap1\n  swap2\n  sstore\n  0x01\n    /* \"Hook.sol\":583:615  L2InboxAddress = _l2InboxAddress */\n  dup1\n  sload\n  swap1\n  swap2\n  and\n  sub(shl(0xa0, 0x01), 0x01)\n  swap3\n  swap1\n  swap3\n  and\n  swap2\n  swap1\n  swap2\n  or\n  swap1\n  sstore\n    /* \"Hook.sol\":289:1212  contract Hook is IBaseHook {... */\n  jump(tag_7)\n    /* \"#utility.yul\":14:304   */\ntag_3:\n    /* \"#utility.yul\":84:90   */\n  0x00\n    /* \"#utility.yul\":137:139   */\n  0x20\n    /* \"#utility.yul\":125:134   */\n  dup3\n    /* \"#utility.yul\":116:123   */\n  dup5\n    /* \"#utility.yul\":112:135   */\n  sub\n    /* \"#utility.yul\":108:140   */\n  slt\n    /* \"#utility.yul\":105:157   */\n  iszero\n  tag_9\n  jumpi\n    /* \"#utility.yul\":153:154   */\n  0x00\n    /* \"#utility.yul\":150:151   */\n  dup1\n    /* \"#utility.yul\":143:155   */\n  revert\n    /* \"#utility.yul\":105:157   */\ntag_9:\n    /* \"#utility.yul\":179:195   */\n  dup2\n  mload\n  sub(shl(0xa0, 0x01), 0x01)\n    /* \"#utility.yul\":224:255   */\n  dup2\n  and\n    /* \"#utility.yul\":214:256   */\n  dup2\n  eq\n    /* \"#utility.yul\":204:274   */\n  tag_10\n  jumpi\n    /* \"#utility.yul\":270:271   */\n  0x00\n    /* \"#utility.yul\":267:268   */\n  dup1\n    /* \"#utility.yul\":260:272   */\n  revert\n    /* \"#utility.yul\":204:274   */\ntag_10:\n    /* \"#utility.yul\":293:298   */\n  swap4\n    /* \"#utility.yul\":14:304   */\n  swap3\n  pop\n  pop\n  pop\n  jump\t// out\ntag_7:\n    /* \"Hook.sol\":289:1212  contract Hook is IBaseHook {... */\n  dataSize(sub_0)\n  dup1\n  dataOffset(sub_0)\n  0x00\n  codecopy\n  0x00\n  return\nstop\n\nsub_0: assembly {\n        /* \"Hook.sol\":289:1212  contract Hook is IBaseHook {... */\n      mstore(0x40, 0x80)\n      jumpi(tag_1, lt(calldatasize, 0x04))\n      shr(0xe0, calldataload(0x00))\n      dup1\n      0x24205697\n      eq\n      tag_2\n      jumpi\n      dup1\n      0x354a0509\n      eq\n      tag_3\n      jumpi\n      dup1\n      0x5d86deb3\n      eq\n      tag_4\n      jumpi\n      dup1\n      0x9dd20277\n      eq\n      tag_5\n      jumpi\n    tag_1:\n      0x00\n      dup1\n      revert\n        /* \"Hook.sol\":322:368  ICrossDomainMessenger public optimismMessenger */\n    tag_2:\n      callvalue\n      dup1\n      iszero\n      tag_6\n      jumpi\n      0x00\n      dup1\n      revert\n    tag_6:\n      pop\n      sload(0x00)\n      tag_7\n      swap1\n      sub(shl(0xa0, 0x01), 0x01)\n      and\n      dup2\n      jump\n    tag_7:\n      mload(0x40)\n      sub(shl(0xa0, 0x01), 0x01)\n        /* \"#utility.yul\":207:239   */\n      swap1\n      swap2\n      and\n        /* \"#utility.yul\":189:240   */\n      dup2\n      mstore\n        /* \"#utility.yul\":177:179   */\n      0x20\n        /* \"#utility.yul\":162:180   */\n      add\n        /* \"Hook.sol\":322:368  ICrossDomainMessenger public optimismMessenger */\n      mload(0x40)\n      dup1\n      swap2\n      sub\n      swap1\n      return\n        /* \"Hook.sol\":374:403  address public L2InboxAddress */\n    tag_3:\n      callvalue\n      dup1\n      iszero\n      tag_11\n      jumpi\n      0x00\n      dup1\n      revert\n    tag_11:\n      pop\n      sload(0x01)\n      tag_7\n      swap1\n      sub(shl(0xa0, 0x01), 0x01)\n      and\n      dup2\n      jump\n        /* \"Hook.sol\":955:1210  function sendRootToOptimism(bytes32 _rootHash) public payable {... */\n    tag_4:\n      tag_16\n      tag_17\n      calldatasize\n      0x04\n      tag_18\n      jump\t// in\n    tag_17:\n      tag_19\n      jump\t// in\n    tag_16:\n      stop\n        /* \"Hook.sol\":628:949  function postSubmit(... */\n    tag_5:\n      callvalue\n      dup1\n      iszero\n      tag_20\n      jumpi\n      0x00\n      dup1\n      revert\n    tag_20:\n      pop\n      tag_16\n      tag_22\n      calldatasize\n      0x04\n      tag_23\n      jump\t// in\n    tag_22:\n      tag_24\n      jump\t// in\n        /* \"Hook.sol\":955:1210  function sendRootToOptimism(bytes32 _rootHash) public payable {... */\n    tag_19:\n        /* \"Hook.sol\":1027:1044  bytes memory data */\n      0x00\n        /* \"Hook.sol\":1114:1123  _rootHash */\n      dup2\n        /* \"Hook.sol\":1047:1134  abi.encodeCall(... */\n      add(0x24, mload(0x40))\n      tag_26\n      swap2\n        /* \"#utility.yul\":1353:1378   */\n      dup2\n      mstore\n        /* \"#utility.yul\":1341:1343   */\n      0x20\n        /* \"#utility.yul\":1326:1344   */\n      add\n      swap1\n        /* \"#utility.yul\":1207:1384   */\n      jump\n        /* \"Hook.sol\":1047:1134  abi.encodeCall(... */\n    tag_26:\n      0x40\n      dup1\n      mload\n      not(0x1f)\n      dup2\n      dup5\n      sub\n      add\n      dup2\n      mstore\n      swap2\n      dup2\n      mstore\n      0x20\n      dup3\n      add\n      dup1\n      mload\n      sub(shl(0xe0, 0x01), 0x01)\n      and\n      shl(0xe1, 0x0b8fbdf9)\n      or\n      swap1\n      mstore\n      0x00\n        /* \"Hook.sol\":1144:1161  optimismMessenger */\n      sload\n      0x01\n        /* \"Hook.sol\":1174:1188  L2InboxAddress */\n      sload\n        /* \"Hook.sol\":1144:1203  optimismMessenger.sendMessage(L2InboxAddress, data, 200000) */\n      swap2\n      mload\n      shl(0xe0, 0x3dbb202b)\n      dup2\n      mstore\n        /* \"Hook.sol\":1047:1134  abi.encodeCall(... */\n      swap3\n      swap4\n      pop\n      sub(shl(0xa0, 0x01), 0x01)\n        /* \"Hook.sol\":1144:1161  optimismMessenger */\n      swap1\n      dup2\n      and\n      swap3\n        /* \"Hook.sol\":1144:1173  optimismMessenger.sendMessage */\n      0x3dbb202b\n      swap3\n        /* \"Hook.sol\":1144:1203  optimismMessenger.sendMessage(L2InboxAddress, data, 200000) */\n      tag_28\n      swap3\n        /* \"Hook.sol\":1174:1188  L2InboxAddress */\n      and\n      swap1\n        /* \"Hook.sol\":1047:1134  abi.encodeCall(... */\n      dup6\n      swap1\n        /* \"Hook.sol\":1196:1202  200000 */\n      0x030d40\n      swap1\n        /* \"Hook.sol\":1144:1203  optimismMessenger.sendMessage(L2InboxAddress, data, 200000) */\n      0x04\n      add\n      tag_29\n      jump\t// in\n    tag_28:\n      0x00\n      mload(0x40)\n      dup1\n      dup4\n      sub\n      dup2\n      0x00\n      dup8\n      dup1\n      extcodesize\n      iszero\n      dup1\n      iszero\n      tag_30\n      jumpi\n      0x00\n      dup1\n      revert\n    tag_30:\n      pop\n      gas\n      call\n      iszero\n      dup1\n      iszero\n      tag_32\n      jumpi\n      returndatasize\n      0x00\n      dup1\n      returndatacopy\n      revert(0x00, returndatasize)\n    tag_32:\n      pop\n      pop\n      pop\n      pop\n        /* \"Hook.sol\":1017:1210  {... */\n      pop\n        /* \"Hook.sol\":955:1210  function sendRootToOptimism(bytes32 _rootHash) public payable {... */\n      pop\n      jump\t// out\n        /* \"Hook.sol\":628:949  function postSubmit(... */\n    tag_24:\n        /* \"Hook.sol\":802:819  bytes32 stateRoot */\n      0x00\n        /* \"Hook.sol\":822:838  _batch.lastBlock */\n      tag_34\n      0x0100\n      dup5\n      add\n        /* \"Hook.sol\":822:828  _batch */\n      dup5\n        /* \"Hook.sol\":822:838  _batch.lastBlock */\n      tag_35\n      jump\t// in\n    tag_34:\n        /* \"Hook.sol\":822:848  _batch.lastBlock.stateRoot */\n      0x80\n      add\n      calldataload\n        /* \"Hook.sol\":802:848  bytes32 stateRoot = _batch.lastBlock.stateRoot */\n      swap1\n      pop\n        /* \"Hook.sol\":913:942  sendRootToOptimism(stateRoot) */\n      tag_36\n        /* \"Hook.sol\":932:941  stateRoot */\n      dup2\n        /* \"Hook.sol\":913:931  sendRootToOptimism */\n      tag_19\n        /* \"Hook.sol\":913:942  sendRootToOptimism(stateRoot) */\n      jump\t// in\n    tag_36:\n        /* \"Hook.sol\":730:949  {... */\n      pop\n        /* \"Hook.sol\":628:949  function postSubmit(... */\n      pop\n      pop\n      jump\t// out\n        /* \"#utility.yul\":459:639   */\n    tag_18:\n        /* \"#utility.yul\":518:524   */\n      0x00\n        /* \"#utility.yul\":571:573   */\n      0x20\n        /* \"#utility.yul\":559:568   */\n      dup3\n        /* \"#utility.yul\":550:557   */\n      dup5\n        /* \"#utility.yul\":546:569   */\n      sub\n        /* \"#utility.yul\":542:574   */\n      slt\n        /* \"#utility.yul\":539:591   */\n      iszero\n      tag_41\n      jumpi\n        /* \"#utility.yul\":587:588   */\n      0x00\n        /* \"#utility.yul\":584:585   */\n      dup1\n        /* \"#utility.yul\":577:589   */\n      revert\n        /* \"#utility.yul\":539:591   */\n    tag_41:\n      pop\n        /* \"#utility.yul\":610:633   */\n      calldataload\n      swap2\n        /* \"#utility.yul\":459:639   */\n      swap1\n      pop\n      jump\t// out\n        /* \"#utility.yul\":644:1202   */\n    tag_23:\n        /* \"#utility.yul\":736:742   */\n      0x00\n        /* \"#utility.yul\":744:750   */\n      dup1\n        /* \"#utility.yul\":797:799   */\n      0x40\n        /* \"#utility.yul\":785:794   */\n      dup4\n        /* \"#utility.yul\":776:783   */\n      dup6\n        /* \"#utility.yul\":772:795   */\n      sub\n        /* \"#utility.yul\":768:800   */\n      slt\n        /* \"#utility.yul\":765:817   */\n      iszero\n      tag_43\n      jumpi\n        /* \"#utility.yul\":813:814   */\n      0x00\n        /* \"#utility.yul\":810:811   */\n      dup1\n        /* \"#utility.yul\":803:815   */\n      revert\n        /* \"#utility.yul\":765:817   */\n    tag_43:\n        /* \"#utility.yul\":853:862   */\n      dup3\n        /* \"#utility.yul\":840:863   */\n      calldataload\n        /* \"#utility.yul\":886:904   */\n      0xffffffffffffffff\n        /* \"#utility.yul\":878:884   */\n      dup2\n        /* \"#utility.yul\":875:905   */\n      gt\n        /* \"#utility.yul\":872:922   */\n      iszero\n      tag_44\n      jumpi\n        /* \"#utility.yul\":918:919   */\n      0x00\n        /* \"#utility.yul\":915:916   */\n      dup1\n        /* \"#utility.yul\":908:920   */\n      revert\n        /* \"#utility.yul\":872:922   */\n    tag_44:\n        /* \"#utility.yul\":941:963   */\n      dup4\n      add\n        /* \"#utility.yul\":997:1000   */\n      0x0120\n        /* \"#utility.yul\":979:995   */\n      dup2\n      dup7\n      sub\n        /* \"#utility.yul\":975:1001   */\n      slt\n        /* \"#utility.yul\":972:1018   */\n      iszero\n      tag_45\n      jumpi\n        /* \"#utility.yul\":1014:1015   */\n      0x00\n        /* \"#utility.yul\":1011:1012   */\n      dup1\n        /* \"#utility.yul\":1004:1016   */\n      revert\n        /* \"#utility.yul\":972:1018   */\n    tag_45:\n        /* \"#utility.yul\":1037:1039   */\n      swap2\n      pop\n        /* \"#utility.yul\":1089:1091   */\n      0x20\n        /* \"#utility.yul\":1074:1092   */\n      dup4\n      add\n        /* \"#utility.yul\":1061:1093   */\n      calldataload\n      sub(shl(0xa0, 0x01), 0x01)\n        /* \"#utility.yul\":1122:1153   */\n      dup2\n      and\n        /* \"#utility.yul\":1112:1154   */\n      dup2\n      eq\n        /* \"#utility.yul\":1102:1172   */\n      tag_46\n      jumpi\n        /* \"#utility.yul\":1168:1169   */\n      0x00\n        /* \"#utility.yul\":1165:1166   */\n      dup1\n        /* \"#utility.yul\":1158:1170   */\n      revert\n        /* \"#utility.yul\":1102:1172   */\n    tag_46:\n        /* \"#utility.yul\":1191:1196   */\n      dup1\n        /* \"#utility.yul\":1181:1196   */\n      swap2\n      pop\n      pop\n        /* \"#utility.yul\":644:1202   */\n      swap3\n      pop\n      swap3\n      swap1\n      pop\n      jump\t// out\n        /* \"#utility.yul\":1389:2135   */\n    tag_29:\n        /* \"#utility.yul\":1633:1634   */\n      0x01\n        /* \"#utility.yul\":1629:1630   */\n      dup1\n        /* \"#utility.yul\":1624:1627   */\n      0xa0\n        /* \"#utility.yul\":1620:1631   */\n      shl\n        /* \"#utility.yul\":1616:1635   */\n      sub\n        /* \"#utility.yul\":1608:1614   */\n      dup5\n        /* \"#utility.yul\":1604:1636   */\n      and\n        /* \"#utility.yul\":1593:1602   */\n      dup2\n        /* \"#utility.yul\":1586:1637   */\n      mstore\n        /* \"#utility.yul\":1567:1571   */\n      0x00\n        /* \"#utility.yul\":1656:1658   */\n      0x20\n        /* \"#utility.yul\":1694:1696   */\n      0x60\n        /* \"#utility.yul\":1689:1691   */\n      0x20\n        /* \"#utility.yul\":1678:1687   */\n      dup5\n        /* \"#utility.yul\":1674:1692   */\n      add\n        /* \"#utility.yul\":1667:1697   */\n      mstore\n        /* \"#utility.yul\":1726:1732   */\n      dup5\n        /* \"#utility.yul\":1720:1733   */\n      mload\n        /* \"#utility.yul\":1769:1775   */\n      dup1\n        /* \"#utility.yul\":1764:1766   */\n      0x60\n        /* \"#utility.yul\":1753:1762   */\n      dup6\n        /* \"#utility.yul\":1749:1767   */\n      add\n        /* \"#utility.yul\":1742:1776   */\n      mstore\n        /* \"#utility.yul\":1794:1795   */\n      0x00\n        /* \"#utility.yul\":1804:1945   */\n    tag_49:\n        /* \"#utility.yul\":1818:1824   */\n      dup2\n        /* \"#utility.yul\":1815:1816   */\n      dup2\n        /* \"#utility.yul\":1812:1825   */\n      lt\n        /* \"#utility.yul\":1804:1945   */\n      iszero\n      tag_51\n      jumpi\n        /* \"#utility.yul\":1914:1928   */\n      dup7\n      dup2\n      add\n        /* \"#utility.yul\":1910:1933   */\n      dup4\n      add\n        /* \"#utility.yul\":1904:1934   */\n      mload\n        /* \"#utility.yul\":1879:1896   */\n      dup6\n      dup3\n      add\n        /* \"#utility.yul\":1898:1901   */\n      0x80\n        /* \"#utility.yul\":1875:1902   */\n      add\n        /* \"#utility.yul\":1868:1935   */\n      mstore\n        /* \"#utility.yul\":1833:1843   */\n      dup3\n      add\n        /* \"#utility.yul\":1804:1945   */\n      jump(tag_49)\n    tag_51:\n        /* \"#utility.yul\":1808:1811   */\n      pop\n        /* \"#utility.yul\":1995:1996   */\n      0x00\n        /* \"#utility.yul\":1989:1992   */\n      0x80\n        /* \"#utility.yul\":1980:1986   */\n      dup3\n        /* \"#utility.yul\":1969:1978   */\n      dup7\n        /* \"#utility.yul\":1965:1987   */\n      add\n        /* \"#utility.yul\":1961:1993   */\n      add\n        /* \"#utility.yul\":1954:1997   */\n      mstore\n        /* \"#utility.yul\":2065:2068   */\n      0x80\n        /* \"#utility.yul\":2058:2060   */\n      0x1f\n        /* \"#utility.yul\":2054:2061   */\n      not\n        /* \"#utility.yul\":2049:2051   */\n      0x1f\n        /* \"#utility.yul\":2041:2047   */\n      dup4\n        /* \"#utility.yul\":2037:2052   */\n      add\n        /* \"#utility.yul\":2033:2062   */\n      and\n        /* \"#utility.yul\":2022:2031   */\n      dup6\n        /* \"#utility.yul\":2018:2063   */\n      add\n        /* \"#utility.yul\":2014:2069   */\n      add\n        /* \"#utility.yul\":2006:2069   */\n      swap3\n      pop\n      pop\n      pop\n        /* \"#utility.yul\":2117:2127   */\n      0xffffffff\n        /* \"#utility.yul\":2109:2115   */\n      dup4\n        /* \"#utility.yul\":2105:2128   */\n      and\n        /* \"#utility.yul\":2100:2102   */\n      0x40\n        /* \"#utility.yul\":2089:2098   */\n      dup4\n        /* \"#utility.yul\":2085:2103   */\n      add\n        /* \"#utility.yul\":2078:2129   */\n      mstore\n        /* \"#utility.yul\":1389:2135   */\n      swap5\n      swap4\n      pop\n      pop\n      pop\n      pop\n      jump\t// out\n        /* \"#utility.yul\":2140:2468   */\n    tag_35:\n        /* \"#utility.yul\":2236:2240   */\n      0x00\n        /* \"#utility.yul\":2294:2305   */\n      dup3\n        /* \"#utility.yul\":2281:2306   */\n      calldataload\n        /* \"#utility.yul\":2388:2391   */\n      0x017e\n        /* \"#utility.yul\":2384:2392   */\n      not\n        /* \"#utility.yul\":2373:2381   */\n      dup4\n        /* \"#utility.yul\":2357:2371   */\n      calldatasize\n        /* \"#utility.yul\":2353:2382   */\n      sub\n        /* \"#utility.yul\":2349:2393   */\n      add\n        /* \"#utility.yul\":2329:2347   */\n      dup2\n        /* \"#utility.yul\":2325:2394   */\n      slt\n        /* \"#utility.yul\":2315:2412   */\n      tag_53\n      jumpi\n        /* \"#utility.yul\":2408:2409   */\n      0x00\n        /* \"#utility.yul\":2405:2406   */\n      dup1\n        /* \"#utility.yul\":2398:2410   */\n      revert\n        /* \"#utility.yul\":2315:2412   */\n    tag_53:\n        /* \"#utility.yul\":2429:2462   */\n      swap2\n      swap1\n      swap2\n      add\n      swap3\n        /* \"#utility.yul\":2140:2468   */\n      swap2\n      pop\n      pop\n      jump\t// out\n\n    auxdata: 0xa264697066735822122099b299b004ea651cee531ea7187d8ad935542c271a7982909487955fb5cd5fb064736f6c63430008170033\n}\n",
				"bytecode": {
					"linkReferences": {},
					"object": "608060405234801561000f575f80fd5b5060405161037e38038061037e83398101604081905261002e91610074565b5f80547358cc85b8d04ea49cc6dbd3cbffd00b4b8d6cb3ef6001600160a01b031991821617909155600180549091166001600160a01b03929092169190911790556100a1565b5f60208284031215610084575f80fd5b81516001600160a01b038116811461009a575f80fd5b9392505050565b6102d0806100ae5f395ff3fe60806040526004361061003e575f3560e01c80632420569714610042578063354a05091461007c5780635d86deb31461009b5780639dd20277146100b0575b5f80fd5b34801561004d575f80fd5b505f54610060906001600160a01b031681565b6040516001600160a01b03909116815260200160405180910390f35b348015610087575f80fd5b50600154610060906001600160a01b031681565b6100ae6100a936600461019c565b6100cf565b005b3480156100bb575f80fd5b506100ae6100ca3660046101b3565b610179565b5f816040516024016100e391815260200190565b60408051601f198184030181529181526020820180516001600160e01b0316630b8fbdf960e11b1790525f546001549151633dbb202b60e01b81529293506001600160a01b0390811692633dbb202b92610148921690859062030d4090600401610212565b5f604051808303815f87803b15801561015f575f80fd5b505af1158015610171573d5f803e3d5ffd5b505050505050565b5f61018861010084018461027b565b608001359050610197816100cf565b505050565b5f602082840312156101ac575f80fd5b5035919050565b5f80604083850312156101c4575f80fd5b823567ffffffffffffffff8111156101da575f80fd5b830161012081860312156101ec575f80fd5b915060208301356001600160a01b0381168114610207575f80fd5b809150509250929050565b60018060a01b03841681525f60206060602084015284518060608501525f5b8181101561024d57868101830151858201608001528201610231565b505f608082860101526080601f19601f8301168501019250505063ffffffff83166040830152949350505050565b5f823561017e19833603018112610290575f80fd5b919091019291505056fea264697066735822122099b299b004ea651cee531ea7187d8ad935542c271a7982909487955fb5cd5fb064736f6c63430008170033",
					"opcodes": "PUSH1 0x80 PUSH1 0x40 MSTORE CALLVALUE DUP1 ISZERO PUSH2 0xF JUMPI PUSH0 DUP1 REVERT JUMPDEST POP PUSH1 0x40 MLOAD PUSH2 0x37E CODESIZE SUB DUP1 PUSH2 0x37E DUP4 CODECOPY DUP2 ADD PUSH1 0x40 DUP2 SWAP1 MSTORE PUSH2 0x2E SWAP2 PUSH2 0x74 JUMP JUMPDEST PUSH0 DUP1 SLOAD PUSH20 0x58CC85B8D04EA49CC6DBD3CBFFD00B4B8D6CB3EF PUSH1 0x1 PUSH1 0x1 PUSH1 0xA0 SHL SUB NOT SWAP2 DUP3 AND OR SWAP1 SWAP2 SSTORE PUSH1 0x1 DUP1 SLOAD SWAP1 SWAP2 AND PUSH1 0x1 PUSH1 0x1 PUSH1 0xA0 SHL SUB SWAP3 SWAP1 SWAP3 AND SWAP2 SWAP1 SWAP2 OR SWAP1 SSTORE PUSH2 0xA1 JUMP JUMPDEST PUSH0 PUSH1 0x20 DUP3 DUP5 SUB SLT ISZERO PUSH2 0x84 JUMPI PUSH0 DUP1 REVERT JUMPDEST DUP2 MLOAD PUSH1 0x1 PUSH1 0x1 PUSH1 0xA0 SHL SUB DUP2 AND DUP2 EQ PUSH2 0x9A JUMPI PUSH0 DUP1 REVERT JUMPDEST SWAP4 SWAP3 POP POP POP JUMP JUMPDEST PUSH2 0x2D0 DUP1 PUSH2 0xAE PUSH0 CODECOPY PUSH0 RETURN INVALID PUSH1 0x80 PUSH1 0x40 MSTORE PUSH1 0x4 CALLDATASIZE LT PUSH2 0x3E JUMPI PUSH0 CALLDATALOAD PUSH1 0xE0 SHR DUP1 PUSH4 0x24205697 EQ PUSH2 0x42 JUMPI DUP1 PUSH4 0x354A0509 EQ PUSH2 0x7C JUMPI DUP1 PUSH4 0x5D86DEB3 EQ PUSH2 0x9B JUMPI DUP1 PUSH4 0x9DD20277 EQ PUSH2 0xB0 JUMPI JUMPDEST PUSH0 DUP1 REVERT JUMPDEST CALLVALUE DUP1 ISZERO PUSH2 0x4D JUMPI PUSH0 DUP1 REVERT JUMPDEST POP PUSH0 SLOAD PUSH2 0x60 SWAP1 PUSH1 0x1 PUSH1 0x1 PUSH1 0xA0 SHL SUB AND DUP2 JUMP JUMPDEST PUSH1 0x40 MLOAD PUSH1 0x1 PUSH1 0x1 PUSH1 0xA0 SHL SUB SWAP1 SWAP2 AND DUP2 MSTORE PUSH1 0x20 ADD PUSH1 0x40 MLOAD DUP1 SWAP2 SUB SWAP1 RETURN JUMPDEST CALLVALUE DUP1 ISZERO PUSH2 0x87 JUMPI PUSH0 DUP1 REVERT JUMPDEST POP PUSH1 0x1 SLOAD PUSH2 0x60 SWAP1 PUSH1 0x1 PUSH1 0x1 PUSH1 0xA0 SHL SUB AND DUP2 JUMP JUMPDEST PUSH2 0xAE PUSH2 0xA9 CALLDATASIZE PUSH1 0x4 PUSH2 0x19C JUMP JUMPDEST PUSH2 0xCF JUMP JUMPDEST STOP JUMPDEST CALLVALUE DUP1 ISZERO PUSH2 0xBB JUMPI PUSH0 DUP1 REVERT JUMPDEST POP PUSH2 0xAE PUSH2 0xCA CALLDATASIZE PUSH1 0x4 PUSH2 0x1B3 JUMP JUMPDEST PUSH2 0x179 JUMP JUMPDEST PUSH0 DUP2 PUSH1 0x40 MLOAD PUSH1 0x24 ADD PUSH2 0xE3 SWAP2 DUP2 MSTORE PUSH1 0x20 ADD SWAP1 JUMP JUMPDEST PUSH1 0x40 DUP1 MLOAD PUSH1 0x1F NOT DUP2 DUP5 SUB ADD DUP2 MSTORE SWAP2 DUP2 MSTORE PUSH1 0x20 DUP3 ADD DUP1 MLOAD PUSH1 0x1 PUSH1 0x1 PUSH1 0xE0 SHL SUB AND PUSH4 0xB8FBDF9 PUSH1 0xE1 SHL OR SWAP1 MSTORE PUSH0 SLOAD PUSH1 0x1 SLOAD SWAP2 MLOAD PUSH4 0x3DBB202B PUSH1 0xE0 SHL DUP2 MSTORE SWAP3 SWAP4 POP PUSH1 0x1 PUSH1 0x1 PUSH1 0xA0 SHL SUB SWAP1 DUP2 AND SWAP3 PUSH4 0x3DBB202B SWAP3 PUSH2 0x148 SWAP3 AND SWAP1 DUP6 SWAP1 PUSH3 0x30D40 SWAP1 PUSH1 0x4 ADD PUSH2 0x212 JUMP JUMPDEST PUSH0 PUSH1 0x40 MLOAD DUP1 DUP4 SUB DUP2 PUSH0 DUP8 DUP1 EXTCODESIZE ISZERO DUP1 ISZERO PUSH2 0x15F JUMPI PUSH0 DUP1 REVERT JUMPDEST POP GAS CALL ISZERO DUP1 ISZERO PUSH2 0x171 JUMPI RETURNDATASIZE PUSH0 DUP1 RETURNDATACOPY RETURNDATASIZE PUSH0 REVERT JUMPDEST POP POP POP POP POP POP JUMP JUMPDEST PUSH0 PUSH2 0x188 PUSH2 0x100 DUP5 ADD DUP5 PUSH2 0x27B JUMP JUMPDEST PUSH1 0x80 ADD CALLDATALOAD SWAP1 POP PUSH2 0x197 DUP2 PUSH2 0xCF JUMP JUMPDEST POP POP POP JUMP JUMPDEST PUSH0 PUSH1 0x20 DUP3 DUP5 SUB SLT ISZERO PUSH2 0x1AC JUMPI PUSH0 DUP1 REVERT JUMPDEST POP CALLDATALOAD SWAP2 SWAP1 POP JUMP JUMPDEST PUSH0 DUP1 PUSH1 0x40 DUP4 DUP6 SUB SLT ISZERO PUSH2 0x1C4 JUMPI PUSH0 DUP1 REVERT JUMPDEST DUP3 CALLDATALOAD PUSH8 0xFFFFFFFFFFFFFFFF DUP2 GT ISZERO PUSH2 0x1DA JUMPI PUSH0 DUP1 REVERT JUMPDEST DUP4 ADD PUSH2 0x120 DUP2 DUP7 SUB SLT ISZERO PUSH2 0x1EC JUMPI PUSH0 DUP1 REVERT JUMPDEST SWAP2 POP PUSH1 0x20 DUP4 ADD CALLDATALOAD PUSH1 0x1 PUSH1 0x1 PUSH1 0xA0 SHL SUB DUP2 AND DUP2 EQ PUSH2 0x207 JUMPI PUSH0 DUP1 REVERT JUMPDEST DUP1 SWAP2 POP POP SWAP3 POP SWAP3 SWAP1 POP JUMP JUMPDEST PUSH1 0x1 DUP1 PUSH1 0xA0 SHL SUB DUP5 AND DUP2 MSTORE PUSH0 PUSH1 0x20 PUSH1 0x60 PUSH1 0x20 DUP5 ADD MSTORE DUP5 MLOAD DUP1 PUSH1 0x60 DUP6 ADD MSTORE PUSH0 JUMPDEST DUP2 DUP2 LT ISZERO PUSH2 0x24D JUMPI DUP7 DUP2 ADD DUP4 ADD MLOAD DUP6 DUP3 ADD PUSH1 0x80 ADD MSTORE DUP3 ADD PUSH2 0x231 JUMP JUMPDEST POP PUSH0 PUSH1 0x80 DUP3 DUP7 ADD ADD MSTORE PUSH1 0x80 PUSH1 0x1F NOT PUSH1 0x1F DUP4 ADD AND DUP6 ADD ADD SWAP3 POP POP POP PUSH4 0xFFFFFFFF DUP4 AND PUSH1 0x40 DUP4 ADD MSTORE SWAP5 SWAP4 POP POP POP POP JUMP JUMPDEST PUSH0 DUP3 CALLDATALOAD PUSH2 0x17E NOT DUP4 CALLDATASIZE SUB ADD DUP2 SLT PUSH2 0x290 JUMPI PUSH0 DUP1 REVERT JUMPDEST SWAP2 SWAP1 SWAP2 ADD SWAP3 SWAP2 POP POP JUMP INVALID LOG2 PUSH5 0x6970667358 0x22 SLT KECCAK256 SWAP10 0xB2 SWAP10 0xB0 DIV 0xEA PUSH6 0x1CEE531EA718 PUSH30 0x8AD935542C271A7982909487955FB5CD5FB064736F6C6343000817003300 "
				},
				"gasEstimates": {
					"creation": {
						"codeDepositCost": "144000",
						"executionCost": "infinite",
						"totalCost": "infinite"
					},
					"external": {
						"L2InboxAddress()": "2324",
						"optimismMessenger()": "2301",
						"postSubmit((uint256,bytes32,uint32,uint32,bytes32,bytes,(bytes,uint8),(bytes32,bytes32,bytes32,bytes32,bytes32,bytes32,uint256,uint256,bytes,bytes,bytes,uint256),(bytes32,bytes32,bytes32,bytes32,bytes32,bytes32,uint256,uint256,bytes,bytes,bytes,uint256)),address)": "infinite",
						"sendRootToOptimism(bytes32)": "infinite"
					}
				},
				"methodIdentifiers": {
					"L2InboxAddress()": "354a0509",
					"optimismMessenger()": "24205697",
					"postSubmit((uint256,bytes32,uint32,uint32,bytes32,bytes,(bytes,uint8),(bytes32,bytes32,bytes32,bytes32,bytes32,bytes32,uint256,uint256,bytes,bytes,bytes,uint256),(bytes32,bytes32,bytes32,bytes32,bytes32,bytes32,uint256,uint256,bytes,bytes,bytes,uint256)),address)": "9dd20277",
					"sendRootToOptimism(bytes32)": "5d86deb3"
				}
			},
			"storageLayout": {
				"storage": [
					{
						"astId": 14,
						"contract": "Hook.sol:Hook",
						"label": "optimismMessenger",
						"offset": 0,
						"slot": "0",
						"type": "t_contract(ICrossDomainMessenger)261"
					},
					{
						"astId": 16,
						"contract": "Hook.sol:Hook",
						"label": "L2InboxAddress",
						"offset": 0,
						"slot": "1",
						"type": "t_address"
					}
				],
				"types": {
					"t_address": {
						"encoding": "inplace",
						"label": "address",
						"numberOfBytes": "20"
					},
					"t_contract(ICrossDomainMessenger)261": {
						"encoding": "inplace",
						"label": "contract ICrossDomainMessenger",
						"numberOfBytes": "20"
					}
				}
			},
			"userdoc": {
				"kind": "user",
				"methods": {},
				"version": 1
			}
		}
	}
}