{
	"Hook.sol": {
		"Hook": {
			"abi": [
				{
					"inputs": [
						{
							"internalType": "address",
							"name": "_l2InboxAddress",
							"type": "address"
						}
					],
					"stateMutability": "nonpayable",
					"type": "constructor"
				},
				{
					"inputs": [],
					"name": "BRIDGE_DOMAIN",
					"outputs": [
						{
							"internalType": "uint32",
							"name": "",
							"type": "uint32"
						}
					],
					"stateMutability": "view",
					"type": "function"
				},
				{
					"inputs": [],
					"name": "L2InboxAddress",
					"outputs": [
						{
							"internalType": "address",
							"name": "",
							"type": "address"
						}
					],
					"stateMutability": "view",
					"type": "function"
				},
				{
					"inputs": [],
					"name": "MRU_DOMAIN",
					"outputs": [
						{
							"internalType": "uint32",
							"name": "",
							"type": "uint32"
						}
					],
					"stateMutability": "view",
					"type": "function"
				},
				{
					"inputs": [],
					"name": "mailbox",
					"outputs": [
						{
							"internalType": "contract IMailbox",
							"name": "",
							"type": "address"
						}
					],
					"stateMutability": "view",
					"type": "function"
				},
				{
					"inputs": [],
					"name": "optimismMessenger",
					"outputs": [
						{
							"internalType": "contract ICrossDomainMessenger",
							"name": "",
							"type": "address"
						}
					],
					"stateMutability": "view",
					"type": "function"
				},
				{
					"inputs": [
						{
							"components": [
								{
									"internalType": "uint256",
									"name": "appId",
									"type": "uint256"
								},
								{
									"internalType": "bytes32",
									"name": "blocksRoot",
									"type": "bytes32"
								},
								{
									"internalType": "uint32",
									"name": "sequenceNumber",
									"type": "uint32"
								},
								{
									"internalType": "uint32",
									"name": "width",
									"type": "uint32"
								},
								{
									"internalType": "bytes32",
									"name": "batchRoot",
									"type": "bytes32"
								},
								{
									"internalType": "bytes",
									"name": "signature",
									"type": "bytes"
								},
								{
									"components": [
										{
											"internalType": "bytes",
											"name": "blobID",
											"type": "bytes"
										},
										{
											"internalType": "enum IAppInbox.DAProvider",
											"name": "da",
											"type": "uint8"
										}
									],
									"internalType": "struct IAppInbox.BlobPointer",
									"name": "daPointer",
									"type": "tuple"
								},
								{
									"components": [
										{
											"internalType": "bytes32",
											"name": "blockHash",
											"type": "bytes32"
										},
										{
											"internalType": "bytes32",
											"name": "parentHash",
											"type": "bytes32"
										},
										{
											"internalType": "bytes32",
											"name": "actionRoot",
											"type": "bytes32"
										},
										{
											"internalType": "bytes32",
											"name": "acknowledgementRoot",
											"type": "bytes32"
										},
										{
											"internalType": "bytes32",
											"name": "stateRoot",
											"type": "bytes32"
										},
										{
											"internalType": "bytes32",
											"name": "hooksRoot",
											"type": "bytes32"
										},
										{
											"internalType": "uint256",
											"name": "height",
											"type": "uint256"
										},
										{
											"internalType": "uint256",
											"name": "timestamp",
											"type": "uint256"
										},
										{
											"internalType": "bytes",
											"name": "vulcanLeaderSignature",
											"type": "bytes"
										},
										{
											"internalType": "bytes",
											"name": "operatorSignature",
											"type": "bytes"
										},
										{
											"internalType": "bytes",
											"name": "builderSignature",
											"type": "bytes"
										},
										{
											"internalType": "uint256",
											"name": "executionStatus",
											"type": "uint256"
										}
									],
									"internalType": "struct IAppInbox.BlockHeader",
									"name": "firstBlock",
									"type": "tuple"
								},
								{
									"components": [
										{
											"internalType": "bytes32",
											"name": "blockHash",
											"type": "bytes32"
										},
										{
											"internalType": "bytes32",
											"name": "parentHash",
											"type": "bytes32"
										},
										{
											"internalType": "bytes32",
											"name": "actionRoot",
											"type": "bytes32"
										},
										{
											"internalType": "bytes32",
											"name": "acknowledgementRoot",
											"type": "bytes32"
										},
										{
											"internalType": "bytes32",
											"name": "stateRoot",
											"type": "bytes32"
										},
										{
											"internalType": "bytes32",
											"name": "hooksRoot",
											"type": "bytes32"
										},
										{
											"internalType": "uint256",
											"name": "height",
											"type": "uint256"
										},
										{
											"internalType": "uint256",
											"name": "timestamp",
											"type": "uint256"
										},
										{
											"internalType": "bytes",
											"name": "vulcanLeaderSignature",
											"type": "bytes"
										},
										{
											"internalType": "bytes",
											"name": "operatorSignature",
											"type": "bytes"
										},
										{
											"internalType": "bytes",
											"name": "builderSignature",
											"type": "bytes"
										},
										{
											"internalType": "uint256",
											"name": "executionStatus",
											"type": "uint256"
										}
									],
									"internalType": "struct IAppInbox.BlockHeader",
									"name": "lastBlock",
									"type": "tuple"
								}
							],
							"internalType": "struct IAppInbox.Batch",
							"name": "_batch",
							"type": "tuple"
						},
						{
							"internalType": "address",
							"name": "",
							"type": "address"
						}
					],
					"name": "postSubmit",
					"outputs": [],
					"stateMutability": "nonpayable",
					"type": "function"
				},
				{
					"inputs": [
						{
							"internalType": "bytes32",
							"name": "_rootHash",
							"type": "bytes32"
						}
					],
					"name": "quoteSendRoot",
					"outputs": [
						{
							"internalType": "uint256",
							"name": "fee",
							"type": "uint256"
						}
					],
					"stateMutability": "view",
					"type": "function"
				},
				{
					"inputs": [
						{
							"internalType": "bytes32",
							"name": "_rootHash",
							"type": "bytes32"
						}
					],
					"name": "sendRootToOptimism",
					"outputs": [],
					"stateMutability": "payable",
					"type": "function"
				},
				{
					"inputs": [
						{
							"internalType": "bytes32",
							"name": "_rootHash",
							"type": "bytes32"
						}
					],
					"name": "sendRootToOptimismViaHyperlane",
					"outputs": [],
					"stateMutability": "nonpayable",
					"type": "function"
				},
				{
					"stateMutability": "payable",
					"type": "receive"
				}
			],
			"devdoc": {
				"kind": "dev",
				"methods": {},
				"version": 1
			},
			"evm": {
				"assembly": "    /* \"Hook.sol\":389:2537  contract Hook is IBaseHook {... */\n  mstore(0x40, 0xc0)\n    /* \"Hook.sol\":568:576  11155420 */\n  0xaa37dc\n    /* \"Hook.sol\":528:576  uint32 public immutable BRIDGE_DOMAIN = 11155420 */\n  0xa0\n  mstore\n    /* \"Hook.sol\":772:1081  constructor(address _l2InboxAddress) {... */\n  callvalue\n  dup1\n  iszero\n  tag_1\n  jumpi\n  0x00\n  dup1\n  revert\ntag_1:\n  pop\n  mload(0x40)\n  sub(codesize, bytecodeSize)\n  dup1\n  bytecodeSize\n  dup4\n  codecopy\n  dup2\n  add\n  0x40\n  dup2\n  swap1\n  mstore\n  tag_2\n  swap2\n  tag_3\n  jump\t// in\ntag_2:\n    /* \"Hook.sol\":819:836  optimismMessenger */\n  0x00\n    /* \"Hook.sol\":819:935  optimismMessenger = ICrossDomainMessenger(... */\n  dup1\n  sload\n    /* \"Hook.sol\":882:924  0x58Cc85b8D04EA49cC6DBd3CbFFd00B4B8D6cb3ef */\n  0x58cc85b8d04ea49cc6dbd3cbffd00b4b8d6cb3ef\n  not(sub(shl(0xa0, 0x01), 0x01))\n    /* \"Hook.sol\":819:935  optimismMessenger = ICrossDomainMessenger(... */\n  swap2\n  dup3\n  and\n  or\n  swap1\n  swap2\n  sstore\n    /* \"Hook.sol\":965:1007  0xfFAEF09B3cd11D9b20d1a19bECca54EEC2884766 */\n  0xffaef09b3cd11d9b20d1a19becca54eec2884766\n    /* \"Hook.sol\":946:1008  mailbox = IMailbox(0xfFAEF09B3cd11D9b20d1a19bECca54EEC2884766) */\n  0x80\n  mstore\n  0x01\n    /* \"Hook.sol\":1042:1074  L2InboxAddress = _l2InboxAddress */\n  dup1\n  sload\n  swap1\n  swap2\n  and\n  sub(shl(0xa0, 0x01), 0x01)\n  swap3\n  swap1\n  swap3\n  and\n  swap2\n  swap1\n  swap2\n  or\n  swap1\n  sstore\n    /* \"Hook.sol\":389:2537  contract Hook is IBaseHook {... */\n  jump(tag_7)\n    /* \"#utility.yul\":14:304   */\ntag_3:\n    /* \"#utility.yul\":84:90   */\n  0x00\n    /* \"#utility.yul\":137:139   */\n  0x20\n    /* \"#utility.yul\":125:134   */\n  dup3\n    /* \"#utility.yul\":116:123   */\n  dup5\n    /* \"#utility.yul\":112:135   */\n  sub\n    /* \"#utility.yul\":108:140   */\n  slt\n    /* \"#utility.yul\":105:157   */\n  iszero\n  tag_9\n  jumpi\n    /* \"#utility.yul\":153:154   */\n  0x00\n    /* \"#utility.yul\":150:151   */\n  dup1\n    /* \"#utility.yul\":143:155   */\n  revert\n    /* \"#utility.yul\":105:157   */\ntag_9:\n    /* \"#utility.yul\":179:195   */\n  dup2\n  mload\n  sub(shl(0xa0, 0x01), 0x01)\n    /* \"#utility.yul\":224:255   */\n  dup2\n  and\n    /* \"#utility.yul\":214:256   */\n  dup2\n  eq\n    /* \"#utility.yul\":204:274   */\n  tag_10\n  jumpi\n    /* \"#utility.yul\":270:271   */\n  0x00\n    /* \"#utility.yul\":267:268   */\n  dup1\n    /* \"#utility.yul\":260:272   */\n  revert\n    /* \"#utility.yul\":204:274   */\ntag_10:\n    /* \"#utility.yul\":293:298   */\n  swap4\n    /* \"#utility.yul\":14:304   */\n  swap3\n  pop\n  pop\n  pop\n  jump\t// out\ntag_7:\n    /* \"Hook.sol\":389:2537  contract Hook is IBaseHook {... */\n  mload(0x80)\n  mload(0xa0)\n  codecopy(0x00, dataOffset(sub_0), dataSize(sub_0))\n  0x00\n  assignImmutable(\"0x58a280f74f57bf051c40f060139dc747e015be52f68c57e2c4ab2e4bd4146f43\")\n  0x00\n  assignImmutable(\"0x6585423cb6456b1d4957f6454d2f004f0c4f58d53a00082412d5c2ef4b1b31fd\")\n  return(0x00, dataSize(sub_0))\nstop\n\nsub_0: assembly {\n        /* \"Hook.sol\":389:2537  contract Hook is IBaseHook {... */\n      mstore(0x40, 0x80)\n      jumpi(tag_1, lt(calldatasize, 0x04))\n      shr(0xe0, calldataload(0x00))\n      dup1\n      0x7356d8b2\n      gt\n      tag_12\n      jumpi\n      dup1\n      0x7356d8b2\n      eq\n      tag_7\n      jumpi\n      dup1\n      0x9dd20277\n      eq\n      tag_8\n      jumpi\n      dup1\n      0xd5438eae\n      eq\n      tag_9\n      jumpi\n      dup1\n      0xf040627f\n      eq\n      tag_10\n      jumpi\n      dup1\n      0xf128b528\n      eq\n      tag_11\n      jumpi\n      0x00\n      dup1\n      revert\n    tag_12:\n      dup1\n      0x24205697\n      eq\n      tag_3\n      jumpi\n      dup1\n      0x354a0509\n      eq\n      tag_4\n      jumpi\n      dup1\n      0x5c40effd\n      eq\n      tag_5\n      jumpi\n      dup1\n      0x5d86deb3\n      eq\n      tag_6\n      jumpi\n      0x00\n      dup1\n      revert\n    tag_1:\n      jumpi(tag_2, calldatasize)\n      stop\n    tag_2:\n      0x00\n      dup1\n      revert\n        /* \"Hook.sol\":684:730  ICrossDomainMessenger public optimismMessenger */\n    tag_3:\n      callvalue\n      dup1\n      iszero\n      tag_15\n      jumpi\n      0x00\n      dup1\n      revert\n    tag_15:\n      pop\n      sload(0x00)\n      tag_16\n      swap1\n      sub(shl(0xa0, 0x01), 0x01)\n      and\n      dup2\n      jump\n    tag_16:\n      mload(0x40)\n      sub(shl(0xa0, 0x01), 0x01)\n        /* \"#utility.yul\":207:239   */\n      swap1\n      swap2\n      and\n        /* \"#utility.yul\":189:240   */\n      dup2\n      mstore\n        /* \"#utility.yul\":177:179   */\n      0x20\n        /* \"#utility.yul\":162:180   */\n      add\n        /* \"Hook.sol\":684:730  ICrossDomainMessenger public optimismMessenger */\n    tag_18:\n      mload(0x40)\n      dup1\n      swap2\n      sub\n      swap1\n      return\n        /* \"Hook.sol\":736:765  address public L2InboxAddress */\n    tag_4:\n      callvalue\n      dup1\n      iszero\n      tag_20\n      jumpi\n      0x00\n      dup1\n      revert\n    tag_20:\n      pop\n      sload(0x01)\n      tag_16\n      swap1\n      sub(shl(0xa0, 0x01), 0x01)\n      and\n      dup2\n      jump\n        /* \"Hook.sol\":609:653  uint32 public constant MRU_DOMAIN = 11155111 */\n    tag_5:\n      callvalue\n      dup1\n      iszero\n      tag_25\n      jumpi\n      0x00\n      dup1\n      revert\n    tag_25:\n      pop\n      tag_26\n        /* \"Hook.sol\":645:653  11155111 */\n      0xaa36a7\n        /* \"Hook.sol\":609:653  uint32 public constant MRU_DOMAIN = 11155111 */\n      dup2\n      jump\n    tag_26:\n      mload(0x40)\n        /* \"#utility.yul\":633:643   */\n      0xffffffff\n        /* \"#utility.yul\":621:644   */\n      swap1\n      swap2\n      and\n        /* \"#utility.yul\":603:645   */\n      dup2\n      mstore\n        /* \"#utility.yul\":591:593   */\n      0x20\n        /* \"#utility.yul\":576:594   */\n      add\n        /* \"Hook.sol\":609:653  uint32 public constant MRU_DOMAIN = 11155111 */\n      tag_18\n        /* \"#utility.yul\":459:651   */\n      jump\n        /* \"Hook.sol\":2245:2500  function sendRootToOptimism(bytes32 _rootHash) public payable {... */\n    tag_6:\n      tag_30\n      tag_31\n      calldatasize\n      0x04\n      tag_32\n      jump\t// in\n    tag_31:\n      tag_33\n      jump\t// in\n    tag_30:\n      stop\n        /* \"Hook.sol\":1468:1986  function sendRootToOptimismViaHyperlane(bytes32 _rootHash) public {... */\n    tag_7:\n      callvalue\n      dup1\n      iszero\n      tag_34\n      jumpi\n      0x00\n      dup1\n      revert\n    tag_34:\n      pop\n      tag_30\n      tag_36\n      calldatasize\n      0x04\n      tag_32\n      jump\t// in\n    tag_36:\n      tag_37\n      jump\t// in\n        /* \"Hook.sol\":1087:1462  function postSubmit(... */\n    tag_8:\n      callvalue\n      dup1\n      iszero\n      tag_38\n      jumpi\n      0x00\n      dup1\n      revert\n    tag_38:\n      pop\n      tag_30\n      tag_40\n      calldatasize\n      0x04\n      tag_41\n      jump\t// in\n    tag_40:\n      tag_42\n      jump\t// in\n        /* \"Hook.sol\":489:522  IMailbox public immutable mailbox */\n    tag_9:\n      callvalue\n      dup1\n      iszero\n      tag_43\n      jumpi\n      0x00\n      dup1\n      revert\n    tag_43:\n      pop\n      tag_16\n      immutable(\"0x6585423cb6456b1d4957f6454d2f004f0c4f58d53a00082412d5c2ef4b1b31fd\")\n      dup2\n      jump\n        /* \"Hook.sol\":528:576  uint32 public immutable BRIDGE_DOMAIN = 11155420 */\n    tag_10:\n      callvalue\n      dup1\n      iszero\n      tag_48\n      jumpi\n      0x00\n      dup1\n      revert\n    tag_48:\n      pop\n      tag_26\n      immutable(\"0x58a280f74f57bf051c40f060139dc747e015be52f68c57e2c4ab2e4bd4146f43\")\n      dup2\n      jump\n        /* \"Hook.sol\":1992:2239  function quoteSendRoot(bytes32 _rootHash) public view returns(uint256 fee) {... */\n    tag_11:\n      callvalue\n      dup1\n      iszero\n      tag_52\n      jumpi\n      0x00\n      dup1\n      revert\n    tag_52:\n      pop\n      tag_53\n      tag_54\n      calldatasize\n      0x04\n      tag_32\n      jump\t// in\n    tag_54:\n      tag_55\n      jump\t// in\n    tag_53:\n      mload(0x40)\n        /* \"#utility.yul\":1774:1799   */\n      swap1\n      dup2\n      mstore\n        /* \"#utility.yul\":1762:1764   */\n      0x20\n        /* \"#utility.yul\":1747:1765   */\n      add\n        /* \"Hook.sol\":1992:2239  function quoteSendRoot(bytes32 _rootHash) public view returns(uint256 fee) {... */\n      tag_18\n        /* \"#utility.yul\":1628:1805   */\n      jump\n        /* \"Hook.sol\":2245:2500  function sendRootToOptimism(bytes32 _rootHash) public payable {... */\n    tag_33:\n        /* \"Hook.sol\":2317:2334  bytes memory data */\n      0x00\n        /* \"Hook.sol\":2404:2413  _rootHash */\n      dup2\n        /* \"Hook.sol\":2337:2424  abi.encodeCall(... */\n      add(0x24, mload(0x40))\n      tag_59\n      swap2\n        /* \"#utility.yul\":1774:1799   */\n      dup2\n      mstore\n        /* \"#utility.yul\":1762:1764   */\n      0x20\n        /* \"#utility.yul\":1747:1765   */\n      add\n      swap1\n        /* \"#utility.yul\":1628:1805   */\n      jump\n        /* \"Hook.sol\":2337:2424  abi.encodeCall(... */\n    tag_59:\n      0x40\n      dup1\n      mload\n      not(0x1f)\n      dup2\n      dup5\n      sub\n      add\n      dup2\n      mstore\n      swap2\n      dup2\n      mstore\n      0x20\n      dup3\n      add\n      dup1\n      mload\n      sub(shl(0xe0, 0x01), 0x01)\n      and\n      shl(0xe1, 0x0b8fbdf9)\n      or\n      swap1\n      mstore\n      0x00\n        /* \"Hook.sol\":2434:2451  optimismMessenger */\n      sload\n      0x01\n        /* \"Hook.sol\":2464:2478  L2InboxAddress */\n      sload\n        /* \"Hook.sol\":2434:2493  optimismMessenger.sendMessage(L2InboxAddress, data, 200000) */\n      swap2\n      mload\n      shl(0xe0, 0x3dbb202b)\n      dup2\n      mstore\n        /* \"Hook.sol\":2337:2424  abi.encodeCall(... */\n      swap3\n      swap4\n      pop\n      sub(shl(0xa0, 0x01), 0x01)\n        /* \"Hook.sol\":2434:2451  optimismMessenger */\n      swap1\n      dup2\n      and\n      swap3\n        /* \"Hook.sol\":2434:2463  optimismMessenger.sendMessage */\n      0x3dbb202b\n      swap3\n        /* \"Hook.sol\":2434:2493  optimismMessenger.sendMessage(L2InboxAddress, data, 200000) */\n      tag_61\n      swap3\n        /* \"Hook.sol\":2464:2478  L2InboxAddress */\n      and\n      swap1\n        /* \"Hook.sol\":2337:2424  abi.encodeCall(... */\n      dup6\n      swap1\n        /* \"Hook.sol\":2486:2492  200000 */\n      0x030d40\n      swap1\n        /* \"Hook.sol\":2434:2493  optimismMessenger.sendMessage(L2InboxAddress, data, 200000) */\n      0x04\n      add\n      tag_62\n      jump\t// in\n    tag_61:\n      0x00\n      mload(0x40)\n      dup1\n      dup4\n      sub\n      dup2\n      0x00\n      dup8\n      dup1\n      extcodesize\n      iszero\n      dup1\n      iszero\n      tag_63\n      jumpi\n      0x00\n      dup1\n      revert\n    tag_63:\n      pop\n      gas\n      call\n      iszero\n      dup1\n      iszero\n      tag_65\n      jumpi\n      returndatasize\n      0x00\n      dup1\n      returndatacopy\n      revert(0x00, returndatasize)\n    tag_65:\n      pop\n      pop\n      pop\n      pop\n        /* \"Hook.sol\":2307:2500  {... */\n      pop\n        /* \"Hook.sol\":2245:2500  function sendRootToOptimism(bytes32 _rootHash) public payable {... */\n      pop\n      jump\t// out\n        /* \"Hook.sol\":1468:1986  function sendRootToOptimismViaHyperlane(bytes32 _rootHash) public {... */\n    tag_37:\n        /* \"Hook.sol\":1587:1598  uint256 fee */\n      0x00\n        /* \"Hook.sol\":1601:1625  quoteSendRoot(_rootHash) */\n      tag_67\n        /* \"Hook.sol\":1615:1624  _rootHash */\n      dup3\n        /* \"Hook.sol\":1601:1614  quoteSendRoot */\n      tag_55\n        /* \"Hook.sol\":1601:1625  quoteSendRoot(_rootHash) */\n      jump\t// in\n    tag_67:\n        /* \"Hook.sol\":1587:1625  uint256 fee = quoteSendRoot(_rootHash) */\n      swap1\n      pop\n        /* \"Hook.sol\":1731:1734  fee */\n      dup1\n        /* \"Hook.sol\":1706:1727  address(this).balance */\n      selfbalance\n        /* \"Hook.sol\":1706:1734  address(this).balance >= fee */\n      lt\n        /* \"Hook.sol\":1702:1980  if (address(this).balance >= fee) {... */\n      tag_68\n      jumpi\n        /* \"Hook.sol\":1901:1915  L2InboxAddress */\n      sload(0x01)\n      sub(shl(0xa0, 0x01), 0x01)\n        /* \"Hook.sol\":1797:1804  mailbox */\n      immutable(\"0x6585423cb6456b1d4957f6454d2f004f0c4f58d53a00082412d5c2ef4b1b31fd\")\n        /* \"Hook.sol\":1797:1813  mailbox.dispatch */\n      dup2\n      and\n      swap2\n      0xfa31de01\n      swap2\n        /* \"Hook.sol\":1821:1824  fee */\n      dup5\n      swap2\n        /* \"Hook.sol\":1843:1856  BRIDGE_DOMAIN */\n      immutable(\"0x58a280f74f57bf051c40f060139dc747e015be52f68c57e2c4ab2e4bd4146f43\")\n      swap2\n        /* \"Hook.sol\":1901:1915  L2InboxAddress */\n      and\n        /* \"Hook.sol\":1934:1955  abi.encode(_rootHash) */\n      0x40\n      dup1\n      mload\n      0x20\n      dup2\n      add\n        /* \"#utility.yul\":1774:1799   */\n      dup10\n      swap1\n      mstore\n        /* \"#utility.yul\":1747:1765   */\n      add\n        /* \"Hook.sol\":1934:1955  abi.encode(_rootHash) */\n      mload(0x40)\n      0x20\n      dup2\n      dup4\n      sub\n      sub\n      dup2\n      mstore\n      swap1\n      0x40\n      mstore\n        /* \"Hook.sol\":1797:1969  mailbox.dispatch{value: fee}(... */\n      mload(0x40)\n      dup6\n      0xffffffff\n      and\n      0xe0\n      shl\n      dup2\n      mstore\n      0x04\n      add\n      tag_72\n      swap4\n      swap3\n      swap2\n      swap1\n      tag_73\n      jump\t// in\n    tag_72:\n      0x20\n      mload(0x40)\n      dup1\n      dup4\n      sub\n      dup2\n      dup6\n      dup9\n      gas\n      call\n      iszero\n      dup1\n      iszero\n      tag_75\n      jumpi\n      returndatasize\n      0x00\n      dup1\n      returndatacopy\n      revert(0x00, returndatasize)\n    tag_75:\n      pop\n      pop\n      pop\n      pop\n      pop\n      mload(0x40)\n      returndatasize\n      not(0x1f)\n      0x1f\n      dup3\n      add\n      and\n      dup3\n      add\n      dup1\n      0x40\n      mstore\n      pop\n      dup2\n      add\n      swap1\n      tag_76\n      swap2\n      swap1\n      tag_77\n      jump\t// in\n    tag_76:\n      pop\n        /* \"Hook.sol\":1702:1980  if (address(this).balance >= fee) {... */\n    tag_68:\n        /* \"Hook.sol\":1534:1986  {... */\n      pop\n        /* \"Hook.sol\":1468:1986  function sendRootToOptimismViaHyperlane(bytes32 _rootHash) public {... */\n      pop\n      jump\t// out\n        /* \"Hook.sol\":1087:1462  function postSubmit(... */\n    tag_42:\n        /* \"Hook.sol\":1261:1278  bytes32 stateRoot */\n      0x00\n        /* \"Hook.sol\":1281:1297  _batch.lastBlock */\n      tag_79\n      0x0100\n      dup5\n      add\n        /* \"Hook.sol\":1281:1287  _batch */\n      dup5\n        /* \"Hook.sol\":1281:1297  _batch.lastBlock */\n      tag_80\n      jump\t// in\n    tag_79:\n        /* \"Hook.sol\":1281:1307  _batch.lastBlock.stateRoot */\n      0x80\n      add\n      calldataload\n        /* \"Hook.sol\":1261:1307  bytes32 stateRoot = _batch.lastBlock.stateRoot */\n      swap1\n      pop\n        /* \"Hook.sol\":1414:1455  sendRootToOptimismViaHyperlane(stateRoot) */\n      tag_76\n        /* \"Hook.sol\":1445:1454  stateRoot */\n      dup2\n        /* \"Hook.sol\":1414:1444  sendRootToOptimismViaHyperlane */\n      tag_37\n        /* \"Hook.sol\":1414:1455  sendRootToOptimismViaHyperlane(stateRoot) */\n      jump\t// in\n        /* \"Hook.sol\":1992:2239  function quoteSendRoot(bytes32 _rootHash) public view returns(uint256 fee) {... */\n    tag_55:\n        /* \"Hook.sol\":2172:2186  L2InboxAddress */\n      sload(0x01)\n        /* \"Hook.sol\":2054:2065  uint256 fee */\n      0x00\n      swap1\n      sub(shl(0xa0, 0x01), 0x01)\n        /* \"Hook.sol\":2083:2090  mailbox */\n      immutable(\"0x6585423cb6456b1d4957f6454d2f004f0c4f58d53a00082412d5c2ef4b1b31fd\")\n        /* \"Hook.sol\":2083:2104  mailbox.quoteDispatch */\n      dup2\n      and\n      swap2\n      0x9c42bd18\n      swap2\n        /* \"Hook.sol\":2118:2131  BRIDGE_DOMAIN */\n      immutable(\"0x58a280f74f57bf051c40f060139dc747e015be52f68c57e2c4ab2e4bd4146f43\")\n      swap2\n        /* \"Hook.sol\":2172:2186  L2InboxAddress */\n      and\n        /* \"Hook.sol\":2201:2222  abi.encode(_rootHash) */\n      0x40\n      dup1\n      mload\n      0x20\n      dup2\n      add\n        /* \"#utility.yul\":1774:1799   */\n      dup9\n      swap1\n      mstore\n        /* \"#utility.yul\":1747:1765   */\n      add\n        /* \"Hook.sol\":2201:2222  abi.encode(_rootHash) */\n      mload(0x40)\n      0x20\n      dup2\n      dup4\n      sub\n      sub\n      dup2\n      mstore\n      swap1\n      0x40\n      mstore\n        /* \"Hook.sol\":2083:2232  mailbox.quoteDispatch(... */\n      mload(0x40)\n      dup5\n      0xffffffff\n      and\n      0xe0\n      shl\n      dup2\n      mstore\n      0x04\n      add\n      tag_85\n      swap4\n      swap3\n      swap2\n      swap1\n      tag_73\n      jump\t// in\n    tag_85:\n      0x20\n      mload(0x40)\n      dup1\n      dup4\n      sub\n      dup2\n      dup7\n      gas\n      staticcall\n      iszero\n      dup1\n      iszero\n      tag_87\n      jumpi\n      returndatasize\n      0x00\n      dup1\n      returndatacopy\n      revert(0x00, returndatasize)\n    tag_87:\n      pop\n      pop\n      pop\n      pop\n      mload(0x40)\n      returndatasize\n      not(0x1f)\n      0x1f\n      dup3\n      add\n      and\n      dup3\n      add\n      dup1\n      0x40\n      mstore\n      pop\n      dup2\n      add\n      swap1\n      tag_88\n      swap2\n      swap1\n      tag_77\n      jump\t// in\n    tag_88:\n        /* \"Hook.sol\":2077:2232  fee = mailbox.quoteDispatch(... */\n      swap3\n        /* \"Hook.sol\":1992:2239  function quoteSendRoot(bytes32 _rootHash) public view returns(uint256 fee) {... */\n      swap2\n      pop\n      pop\n      jump\t// out\n        /* \"#utility.yul\":656:836   */\n    tag_32:\n        /* \"#utility.yul\":715:721   */\n      0x00\n        /* \"#utility.yul\":768:770   */\n      0x20\n        /* \"#utility.yul\":756:765   */\n      dup3\n        /* \"#utility.yul\":747:754   */\n      dup5\n        /* \"#utility.yul\":743:766   */\n      sub\n        /* \"#utility.yul\":739:771   */\n      slt\n        /* \"#utility.yul\":736:788   */\n      iszero\n      tag_97\n      jumpi\n        /* \"#utility.yul\":784:785   */\n      0x00\n        /* \"#utility.yul\":781:782   */\n      dup1\n        /* \"#utility.yul\":774:786   */\n      revert\n        /* \"#utility.yul\":736:788   */\n    tag_97:\n      pop\n        /* \"#utility.yul\":807:830   */\n      calldataload\n      swap2\n        /* \"#utility.yul\":656:836   */\n      swap1\n      pop\n      jump\t// out\n        /* \"#utility.yul\":841:1399   */\n    tag_41:\n        /* \"#utility.yul\":933:939   */\n      0x00\n        /* \"#utility.yul\":941:947   */\n      dup1\n        /* \"#utility.yul\":994:996   */\n      0x40\n        /* \"#utility.yul\":982:991   */\n      dup4\n        /* \"#utility.yul\":973:980   */\n      dup6\n        /* \"#utility.yul\":969:992   */\n      sub\n        /* \"#utility.yul\":965:997   */\n      slt\n        /* \"#utility.yul\":962:1014   */\n      iszero\n      tag_99\n      jumpi\n        /* \"#utility.yul\":1010:1011   */\n      0x00\n        /* \"#utility.yul\":1007:1008   */\n      dup1\n        /* \"#utility.yul\":1000:1012   */\n      revert\n        /* \"#utility.yul\":962:1014   */\n    tag_99:\n        /* \"#utility.yul\":1050:1059   */\n      dup3\n        /* \"#utility.yul\":1037:1060   */\n      calldataload\n        /* \"#utility.yul\":1083:1101   */\n      0xffffffffffffffff\n        /* \"#utility.yul\":1075:1081   */\n      dup2\n        /* \"#utility.yul\":1072:1102   */\n      gt\n        /* \"#utility.yul\":1069:1119   */\n      iszero\n      tag_100\n      jumpi\n        /* \"#utility.yul\":1115:1116   */\n      0x00\n        /* \"#utility.yul\":1112:1113   */\n      dup1\n        /* \"#utility.yul\":1105:1117   */\n      revert\n        /* \"#utility.yul\":1069:1119   */\n    tag_100:\n        /* \"#utility.yul\":1138:1160   */\n      dup4\n      add\n        /* \"#utility.yul\":1194:1197   */\n      0x0120\n        /* \"#utility.yul\":1176:1192   */\n      dup2\n      dup7\n      sub\n        /* \"#utility.yul\":1172:1198   */\n      slt\n        /* \"#utility.yul\":1169:1215   */\n      iszero\n      tag_101\n      jumpi\n        /* \"#utility.yul\":1211:1212   */\n      0x00\n        /* \"#utility.yul\":1208:1209   */\n      dup1\n        /* \"#utility.yul\":1201:1213   */\n      revert\n        /* \"#utility.yul\":1169:1215   */\n    tag_101:\n        /* \"#utility.yul\":1234:1236   */\n      swap2\n      pop\n        /* \"#utility.yul\":1286:1288   */\n      0x20\n        /* \"#utility.yul\":1271:1289   */\n      dup4\n      add\n        /* \"#utility.yul\":1258:1290   */\n      calldataload\n      sub(shl(0xa0, 0x01), 0x01)\n        /* \"#utility.yul\":1319:1350   */\n      dup2\n      and\n        /* \"#utility.yul\":1309:1351   */\n      dup2\n      eq\n        /* \"#utility.yul\":1299:1369   */\n      tag_102\n      jumpi\n        /* \"#utility.yul\":1365:1366   */\n      0x00\n        /* \"#utility.yul\":1362:1363   */\n      dup1\n        /* \"#utility.yul\":1355:1367   */\n      revert\n        /* \"#utility.yul\":1299:1369   */\n    tag_102:\n        /* \"#utility.yul\":1388:1393   */\n      dup1\n        /* \"#utility.yul\":1378:1393   */\n      swap2\n      pop\n      pop\n        /* \"#utility.yul\":841:1399   */\n      swap3\n      pop\n      swap3\n      swap1\n      pop\n      jump\t// out\n        /* \"#utility.yul\":1992:2414   */\n    tag_91:\n        /* \"#utility.yul\":2033:2036   */\n      0x00\n        /* \"#utility.yul\":2071:2076   */\n      dup2\n        /* \"#utility.yul\":2065:2077   */\n      mload\n        /* \"#utility.yul\":2098:2104   */\n      dup1\n        /* \"#utility.yul\":2093:2096   */\n      dup5\n        /* \"#utility.yul\":2086:2105   */\n      mstore\n        /* \"#utility.yul\":2123:2124   */\n      0x00\n        /* \"#utility.yul\":2133:2295   */\n    tag_107:\n        /* \"#utility.yul\":2147:2153   */\n      dup2\n        /* \"#utility.yul\":2144:2145   */\n      dup2\n        /* \"#utility.yul\":2141:2154   */\n      lt\n        /* \"#utility.yul\":2133:2295   */\n      iszero\n      tag_109\n      jumpi\n        /* \"#utility.yul\":2209:2213   */\n      0x20\n        /* \"#utility.yul\":2265:2278   */\n      dup2\n      dup6\n      add\n        /* \"#utility.yul\":2261:2283   */\n      dup2\n      add\n        /* \"#utility.yul\":2255:2284   */\n      mload\n        /* \"#utility.yul\":2237:2248   */\n      dup7\n      dup4\n      add\n        /* \"#utility.yul\":2233:2253   */\n      dup3\n      add\n        /* \"#utility.yul\":2226:2285   */\n      mstore\n        /* \"#utility.yul\":2162:2174   */\n      add\n        /* \"#utility.yul\":2133:2295   */\n      jump(tag_107)\n    tag_109:\n        /* \"#utility.yul\":2137:2140   */\n      pop\n        /* \"#utility.yul\":2340:2341   */\n      0x00\n        /* \"#utility.yul\":2333:2337   */\n      0x20\n        /* \"#utility.yul\":2324:2330   */\n      dup3\n        /* \"#utility.yul\":2319:2322   */\n      dup7\n        /* \"#utility.yul\":2315:2331   */\n      add\n        /* \"#utility.yul\":2311:2338   */\n      add\n        /* \"#utility.yul\":2304:2342   */\n      mstore\n        /* \"#utility.yul\":2403:2407   */\n      0x20\n        /* \"#utility.yul\":2396:2398   */\n      0x1f\n        /* \"#utility.yul\":2392:2399   */\n      not\n        /* \"#utility.yul\":2387:2389   */\n      0x1f\n        /* \"#utility.yul\":2379:2385   */\n      dup4\n        /* \"#utility.yul\":2375:2390   */\n      add\n        /* \"#utility.yul\":2371:2400   */\n      and\n        /* \"#utility.yul\":2366:2369   */\n      dup6\n        /* \"#utility.yul\":2362:2401   */\n      add\n        /* \"#utility.yul\":2358:2408   */\n      add\n        /* \"#utility.yul\":2351:2408   */\n      swap2\n      pop\n      pop\n        /* \"#utility.yul\":1992:2414   */\n      swap3\n      swap2\n      pop\n      pop\n      jump\t// out\n        /* \"#utility.yul\":2419:2833   */\n    tag_62:\n      sub(shl(0xa0, 0x01), 0x01)\n        /* \"#utility.yul\":2634:2666   */\n      dup5\n      and\n        /* \"#utility.yul\":2616:2667   */\n      dup2\n      mstore\n        /* \"#utility.yul\":2703:2705   */\n      0x60\n        /* \"#utility.yul\":2698:2700   */\n      0x20\n        /* \"#utility.yul\":2683:2701   */\n      dup3\n      add\n        /* \"#utility.yul\":2676:2706   */\n      dup2\n      swap1\n      mstore\n      0x00\n      swap1\n        /* \"#utility.yul\":2723:2767   */\n      tag_111\n      swap1\n        /* \"#utility.yul\":2748:2766   */\n      dup4\n      add\n        /* \"#utility.yul\":2740:2746   */\n      dup6\n        /* \"#utility.yul\":2723:2767   */\n      tag_91\n      jump\t// in\n    tag_111:\n        /* \"#utility.yul\":2715:2767   */\n      swap1\n      pop\n        /* \"#utility.yul\":2815:2825   */\n      0xffffffff\n        /* \"#utility.yul\":2807:2813   */\n      dup4\n        /* \"#utility.yul\":2803:2826   */\n      and\n        /* \"#utility.yul\":2798:2800   */\n      0x40\n        /* \"#utility.yul\":2787:2796   */\n      dup4\n        /* \"#utility.yul\":2783:2801   */\n      add\n        /* \"#utility.yul\":2776:2827   */\n      mstore\n        /* \"#utility.yul\":2419:2833   */\n      swap5\n      swap4\n      pop\n      pop\n      pop\n      pop\n      jump\t// out\n        /* \"#utility.yul\":2838:3212   */\n    tag_73:\n        /* \"#utility.yul\":3051:3061   */\n      0xffffffff\n        /* \"#utility.yul\":3043:3049   */\n      dup5\n        /* \"#utility.yul\":3039:3062   */\n      and\n        /* \"#utility.yul\":3028:3037   */\n      dup2\n        /* \"#utility.yul\":3021:3063   */\n      mstore\n        /* \"#utility.yul\":3099:3105   */\n      dup3\n        /* \"#utility.yul\":3094:3096   */\n      0x20\n        /* \"#utility.yul\":3083:3092   */\n      dup3\n        /* \"#utility.yul\":3079:3097   */\n      add\n        /* \"#utility.yul\":3072:3106   */\n      mstore\n        /* \"#utility.yul\":3142:3144   */\n      0x60\n        /* \"#utility.yul\":3137:3139   */\n      0x40\n        /* \"#utility.yul\":3126:3135   */\n      dup3\n        /* \"#utility.yul\":3122:3140   */\n      add\n        /* \"#utility.yul\":3115:3145   */\n      mstore\n        /* \"#utility.yul\":3002:3006   */\n      0x00\n        /* \"#utility.yul\":3162:3206   */\n      tag_113\n        /* \"#utility.yul\":3202:3204   */\n      0x60\n        /* \"#utility.yul\":3191:3200   */\n      dup4\n        /* \"#utility.yul\":3187:3205   */\n      add\n        /* \"#utility.yul\":3179:3185   */\n      dup5\n        /* \"#utility.yul\":3162:3206   */\n      tag_91\n      jump\t// in\n    tag_113:\n        /* \"#utility.yul\":3154:3206   */\n      swap6\n        /* \"#utility.yul\":2838:3212   */\n      swap5\n      pop\n      pop\n      pop\n      pop\n      pop\n      jump\t// out\n        /* \"#utility.yul\":3217:3401   */\n    tag_77:\n        /* \"#utility.yul\":3287:3293   */\n      0x00\n        /* \"#utility.yul\":3340:3342   */\n      0x20\n        /* \"#utility.yul\":3328:3337   */\n      dup3\n        /* \"#utility.yul\":3319:3326   */\n      dup5\n        /* \"#utility.yul\":3315:3338   */\n      sub\n        /* \"#utility.yul\":3311:3343   */\n      slt\n        /* \"#utility.yul\":3308:3360   */\n      iszero\n      tag_115\n      jumpi\n        /* \"#utility.yul\":3356:3357   */\n      0x00\n        /* \"#utility.yul\":3353:3354   */\n      dup1\n        /* \"#utility.yul\":3346:3358   */\n      revert\n        /* \"#utility.yul\":3308:3360   */\n    tag_115:\n      pop\n        /* \"#utility.yul\":3379:3395   */\n      mload\n      swap2\n        /* \"#utility.yul\":3217:3401   */\n      swap1\n      pop\n      jump\t// out\n        /* \"#utility.yul\":3406:3734   */\n    tag_80:\n        /* \"#utility.yul\":3502:3506   */\n      0x00\n        /* \"#utility.yul\":3560:3571   */\n      dup3\n        /* \"#utility.yul\":3547:3572   */\n      calldataload\n        /* \"#utility.yul\":3654:3657   */\n      0x017e\n        /* \"#utility.yul\":3650:3658   */\n      not\n        /* \"#utility.yul\":3639:3647   */\n      dup4\n        /* \"#utility.yul\":3623:3637   */\n      calldatasize\n        /* \"#utility.yul\":3619:3648   */\n      sub\n        /* \"#utility.yul\":3615:3659   */\n      add\n        /* \"#utility.yul\":3595:3613   */\n      dup2\n        /* \"#utility.yul\":3591:3660   */\n      slt\n        /* \"#utility.yul\":3581:3678   */\n      tag_117\n      jumpi\n        /* \"#utility.yul\":3674:3675   */\n      0x00\n        /* \"#utility.yul\":3671:3672   */\n      dup1\n        /* \"#utility.yul\":3664:3676   */\n      revert\n        /* \"#utility.yul\":3581:3678   */\n    tag_117:\n        /* \"#utility.yul\":3695:3728   */\n      swap2\n      swap1\n      swap2\n      add\n      swap3\n        /* \"#utility.yul\":3406:3734   */\n      swap2\n      pop\n      pop\n      jump\t// out\n\n    auxdata: 0xa264697066735822122083ad95cd651fecd95afc5cb4828abd2ffb05deba2a36cadc79e41c8f9cd10a2664736f6c63430008170033\n}\n",
				"bytecode": {
					"linkReferences": {},
					"object": "60c060405262aa37dc60a052348015610016575f80fd5b5060405161071238038061071283398101604081905261003591610093565b5f80547358cc85b8d04ea49cc6dbd3cbffd00b4b8d6cb3ef6001600160a01b03199182161790915573ffaef09b3cd11d9b20d1a19becca54eec2884766608052600180549091166001600160a01b03929092169190911790556100c0565b5f602082840312156100a3575f80fd5b81516001600160a01b03811681146100b9575f80fd5b9392505050565b60805160a0516106156100fd5f395f81816101ae015281816102f301526103eb01525f818161017b015281816102c701526103c101526106155ff3fe608060405260043610610087575f3560e01c80637356d8b2116100575780637356d8b21461012c5780639dd202771461014b578063d5438eae1461016a578063f040627f1461019d578063f128b528146101d0575f80fd5b80632420569714610092578063354a0509146100cd5780635c40effd146100ec5780635d86deb314610117575f80fd5b3661008e57005b5f80fd5b34801561009d575f80fd5b505f546100b0906001600160a01b031681565b6040516001600160a01b0390911681526020015b60405180910390f35b3480156100d8575f80fd5b506001546100b0906001600160a01b031681565b3480156100f7575f80fd5b5061010262aa36a781565b60405163ffffffff90911681526020016100c4565b61012a61012536600461048a565b6101fd565b005b348015610137575f80fd5b5061012a61014636600461048a565b6102a7565b348015610156575f80fd5b5061012a6101653660046104a1565b610394565b348015610175575f80fd5b506100b07f000000000000000000000000000000000000000000000000000000000000000081565b3480156101a8575f80fd5b506101027f000000000000000000000000000000000000000000000000000000000000000081565b3480156101db575f80fd5b506101ef6101ea36600461048a565b6103b2565b6040519081526020016100c4565b5f8160405160240161021191815260200190565b60408051601f198184030181529181526020820180516001600160e01b0316630b8fbdf960e11b1790525f546001549151633dbb202b60e01b81529293506001600160a01b0390811692633dbb202b92610276921690859062030d4090600401610543565b5f604051808303815f87803b15801561028d575f80fd5b505af115801561029f573d5f803e3d5ffd5b505050505050565b5f6102b1826103b2565b9050804710610390576001546001600160a01b037f000000000000000000000000000000000000000000000000000000000000000081169163fa31de019184917f000000000000000000000000000000000000000000000000000000000000000091166040805160208101899052016040516020818303038152906040526040518563ffffffff1660e01b815260040161034d9392919061057c565b60206040518083038185885af1158015610369573d5f803e3d5ffd5b50505050506040513d601f19601f8201168201806040525081019061038e91906105a9565b505b5050565b5f6103a36101008401846105c0565b60800135905061038e816102a7565b6001545f906001600160a01b037f0000000000000000000000000000000000000000000000000000000000000000811691639c42bd18917f000000000000000000000000000000000000000000000000000000000000000091166040805160208101889052016040516020818303038152906040526040518463ffffffff1660e01b81526004016104459392919061057c565b602060405180830381865afa158015610460573d5f803e3d5ffd5b505050506040513d601f19601f8201168201806040525081019061048491906105a9565b92915050565b5f6020828403121561049a575f80fd5b5035919050565b5f80604083850312156104b2575f80fd5b823567ffffffffffffffff8111156104c8575f80fd5b830161012081860312156104da575f80fd5b915060208301356001600160a01b03811681146104f5575f80fd5b809150509250929050565b5f81518084525f5b8181101561052457602081850181015186830182015201610508565b505f602082860101526020601f19601f83011685010191505092915050565b6001600160a01b03841681526060602082018190525f9061056690830185610500565b905063ffffffff83166040830152949350505050565b63ffffffff84168152826020820152606060408201525f6105a06060830184610500565b95945050505050565b5f602082840312156105b9575f80fd5b5051919050565b5f823561017e198336030181126105d5575f80fd5b919091019291505056fea264697066735822122083ad95cd651fecd95afc5cb4828abd2ffb05deba2a36cadc79e41c8f9cd10a2664736f6c63430008170033",
					"opcodes": "PUSH1 0xC0 PUSH1 0x40 MSTORE PUSH3 0xAA37DC PUSH1 0xA0 MSTORE CALLVALUE DUP1 ISZERO PUSH2 0x16 JUMPI PUSH0 DUP1 REVERT JUMPDEST POP PUSH1 0x40 MLOAD PUSH2 0x712 CODESIZE SUB DUP1 PUSH2 0x712 DUP4 CODECOPY DUP2 ADD PUSH1 0x40 DUP2 SWAP1 MSTORE PUSH2 0x35 SWAP2 PUSH2 0x93 JUMP JUMPDEST PUSH0 DUP1 SLOAD PUSH20 0x58CC85B8D04EA49CC6DBD3CBFFD00B4B8D6CB3EF PUSH1 0x1 PUSH1 0x1 PUSH1 0xA0 SHL SUB NOT SWAP2 DUP3 AND OR SWAP1 SWAP2 SSTORE PUSH20 0xFFAEF09B3CD11D9B20D1A19BECCA54EEC2884766 PUSH1 0x80 MSTORE PUSH1 0x1 DUP1 SLOAD SWAP1 SWAP2 AND PUSH1 0x1 PUSH1 0x1 PUSH1 0xA0 SHL SUB SWAP3 SWAP1 SWAP3 AND SWAP2 SWAP1 SWAP2 OR SWAP1 SSTORE PUSH2 0xC0 JUMP JUMPDEST PUSH0 PUSH1 0x20 DUP3 DUP5 SUB SLT ISZERO PUSH2 0xA3 JUMPI PUSH0 DUP1 REVERT JUMPDEST DUP2 MLOAD PUSH1 0x1 PUSH1 0x1 PUSH1 0xA0 SHL SUB DUP2 AND DUP2 EQ PUSH2 0xB9 JUMPI PUSH0 DUP1 REVERT JUMPDEST SWAP4 SWAP3 POP POP POP JUMP JUMPDEST PUSH1 0x80 MLOAD PUSH1 0xA0 MLOAD PUSH2 0x615 PUSH2 0xFD PUSH0 CODECOPY PUSH0 DUP2 DUP2 PUSH2 0x1AE ADD MSTORE DUP2 DUP2 PUSH2 0x2F3 ADD MSTORE PUSH2 0x3EB ADD MSTORE PUSH0 DUP2 DUP2 PUSH2 0x17B ADD MSTORE DUP2 DUP2 PUSH2 0x2C7 ADD MSTORE PUSH2 0x3C1 ADD MSTORE PUSH2 0x615 PUSH0 RETURN INVALID PUSH1 0x80 PUSH1 0x40 MSTORE PUSH1 0x4 CALLDATASIZE LT PUSH2 0x87 JUMPI PUSH0 CALLDATALOAD PUSH1 0xE0 SHR DUP1 PUSH4 0x7356D8B2 GT PUSH2 0x57 JUMPI DUP1 PUSH4 0x7356D8B2 EQ PUSH2 0x12C JUMPI DUP1 PUSH4 0x9DD20277 EQ PUSH2 0x14B JUMPI DUP1 PUSH4 0xD5438EAE EQ PUSH2 0x16A JUMPI DUP1 PUSH4 0xF040627F EQ PUSH2 0x19D JUMPI DUP1 PUSH4 0xF128B528 EQ PUSH2 0x1D0 JUMPI PUSH0 DUP1 REVERT JUMPDEST DUP1 PUSH4 0x24205697 EQ PUSH2 0x92 JUMPI DUP1 PUSH4 0x354A0509 EQ PUSH2 0xCD JUMPI DUP1 PUSH4 0x5C40EFFD EQ PUSH2 0xEC JUMPI DUP1 PUSH4 0x5D86DEB3 EQ PUSH2 0x117 JUMPI PUSH0 DUP1 REVERT JUMPDEST CALLDATASIZE PUSH2 0x8E JUMPI STOP JUMPDEST PUSH0 DUP1 REVERT JUMPDEST CALLVALUE DUP1 ISZERO PUSH2 0x9D JUMPI PUSH0 DUP1 REVERT JUMPDEST POP PUSH0 SLOAD PUSH2 0xB0 SWAP1 PUSH1 0x1 PUSH1 0x1 PUSH1 0xA0 SHL SUB AND DUP2 JUMP JUMPDEST PUSH1 0x40 MLOAD PUSH1 0x1 PUSH1 0x1 PUSH1 0xA0 SHL SUB SWAP1 SWAP2 AND DUP2 MSTORE PUSH1 0x20 ADD JUMPDEST PUSH1 0x40 MLOAD DUP1 SWAP2 SUB SWAP1 RETURN JUMPDEST CALLVALUE DUP1 ISZERO PUSH2 0xD8 JUMPI PUSH0 DUP1 REVERT JUMPDEST POP PUSH1 0x1 SLOAD PUSH2 0xB0 SWAP1 PUSH1 0x1 PUSH1 0x1 PUSH1 0xA0 SHL SUB AND DUP2 JUMP JUMPDEST CALLVALUE DUP1 ISZERO PUSH2 0xF7 JUMPI PUSH0 DUP1 REVERT JUMPDEST POP PUSH2 0x102 PUSH3 0xAA36A7 DUP2 JUMP JUMPDEST PUSH1 0x40 MLOAD PUSH4 0xFFFFFFFF SWAP1 SWAP2 AND DUP2 MSTORE PUSH1 0x20 ADD PUSH2 0xC4 JUMP JUMPDEST PUSH2 0x12A PUSH2 0x125 CALLDATASIZE PUSH1 0x4 PUSH2 0x48A JUMP JUMPDEST PUSH2 0x1FD JUMP JUMPDEST STOP JUMPDEST CALLVALUE DUP1 ISZERO PUSH2 0x137 JUMPI PUSH0 DUP1 REVERT JUMPDEST POP PUSH2 0x12A PUSH2 0x146 CALLDATASIZE PUSH1 0x4 PUSH2 0x48A JUMP JUMPDEST PUSH2 0x2A7 JUMP JUMPDEST CALLVALUE DUP1 ISZERO PUSH2 0x156 JUMPI PUSH0 DUP1 REVERT JUMPDEST POP PUSH2 0x12A PUSH2 0x165 CALLDATASIZE PUSH1 0x4 PUSH2 0x4A1 JUMP JUMPDEST PUSH2 0x394 JUMP JUMPDEST CALLVALUE DUP1 ISZERO PUSH2 0x175 JUMPI PUSH0 DUP1 REVERT JUMPDEST POP PUSH2 0xB0 PUSH32 0x0 DUP2 JUMP JUMPDEST CALLVALUE DUP1 ISZERO PUSH2 0x1A8 JUMPI PUSH0 DUP1 REVERT JUMPDEST POP PUSH2 0x102 PUSH32 0x0 DUP2 JUMP JUMPDEST CALLVALUE DUP1 ISZERO PUSH2 0x1DB JUMPI PUSH0 DUP1 REVERT JUMPDEST POP PUSH2 0x1EF PUSH2 0x1EA CALLDATASIZE PUSH1 0x4 PUSH2 0x48A JUMP JUMPDEST PUSH2 0x3B2 JUMP JUMPDEST PUSH1 0x40 MLOAD SWAP1 DUP2 MSTORE PUSH1 0x20 ADD PUSH2 0xC4 JUMP JUMPDEST PUSH0 DUP2 PUSH1 0x40 MLOAD PUSH1 0x24 ADD PUSH2 0x211 SWAP2 DUP2 MSTORE PUSH1 0x20 ADD SWAP1 JUMP JUMPDEST PUSH1 0x40 DUP1 MLOAD PUSH1 0x1F NOT DUP2 DUP5 SUB ADD DUP2 MSTORE SWAP2 DUP2 MSTORE PUSH1 0x20 DUP3 ADD DUP1 MLOAD PUSH1 0x1 PUSH1 0x1 PUSH1 0xE0 SHL SUB AND PUSH4 0xB8FBDF9 PUSH1 0xE1 SHL OR SWAP1 MSTORE PUSH0 SLOAD PUSH1 0x1 SLOAD SWAP2 MLOAD PUSH4 0x3DBB202B PUSH1 0xE0 SHL DUP2 MSTORE SWAP3 SWAP4 POP PUSH1 0x1 PUSH1 0x1 PUSH1 0xA0 SHL SUB SWAP1 DUP2 AND SWAP3 PUSH4 0x3DBB202B SWAP3 PUSH2 0x276 SWAP3 AND SWAP1 DUP6 SWAP1 PUSH3 0x30D40 SWAP1 PUSH1 0x4 ADD PUSH2 0x543 JUMP JUMPDEST PUSH0 PUSH1 0x40 MLOAD DUP1 DUP4 SUB DUP2 PUSH0 DUP8 DUP1 EXTCODESIZE ISZERO DUP1 ISZERO PUSH2 0x28D JUMPI PUSH0 DUP1 REVERT JUMPDEST POP GAS CALL ISZERO DUP1 ISZERO PUSH2 0x29F JUMPI RETURNDATASIZE PUSH0 DUP1 RETURNDATACOPY RETURNDATASIZE PUSH0 REVERT JUMPDEST POP POP POP POP POP POP JUMP JUMPDEST PUSH0 PUSH2 0x2B1 DUP3 PUSH2 0x3B2 JUMP JUMPDEST SWAP1 POP DUP1 SELFBALANCE LT PUSH2 0x390 JUMPI PUSH1 0x1 SLOAD PUSH1 0x1 PUSH1 0x1 PUSH1 0xA0 SHL SUB PUSH32 0x0 DUP2 AND SWAP2 PUSH4 0xFA31DE01 SWAP2 DUP5 SWAP2 PUSH32 0x0 SWAP2 AND PUSH1 0x40 DUP1 MLOAD PUSH1 0x20 DUP2 ADD DUP10 SWAP1 MSTORE ADD PUSH1 0x40 MLOAD PUSH1 0x20 DUP2 DUP4 SUB SUB DUP2 MSTORE SWAP1 PUSH1 0x40 MSTORE PUSH1 0x40 MLOAD DUP6 PUSH4 0xFFFFFFFF AND PUSH1 0xE0 SHL DUP2 MSTORE PUSH1 0x4 ADD PUSH2 0x34D SWAP4 SWAP3 SWAP2 SWAP1 PUSH2 0x57C JUMP JUMPDEST PUSH1 0x20 PUSH1 0x40 MLOAD DUP1 DUP4 SUB DUP2 DUP6 DUP9 GAS CALL ISZERO DUP1 ISZERO PUSH2 0x369 JUMPI RETURNDATASIZE PUSH0 DUP1 RETURNDATACOPY RETURNDATASIZE PUSH0 REVERT JUMPDEST POP POP POP POP POP PUSH1 0x40 MLOAD RETURNDATASIZE PUSH1 0x1F NOT PUSH1 0x1F DUP3 ADD AND DUP3 ADD DUP1 PUSH1 0x40 MSTORE POP DUP2 ADD SWAP1 PUSH2 0x38E SWAP2 SWAP1 PUSH2 0x5A9 JUMP JUMPDEST POP JUMPDEST POP POP JUMP JUMPDEST PUSH0 PUSH2 0x3A3 PUSH2 0x100 DUP5 ADD DUP5 PUSH2 0x5C0 JUMP JUMPDEST PUSH1 0x80 ADD CALLDATALOAD SWAP1 POP PUSH2 0x38E DUP2 PUSH2 0x2A7 JUMP JUMPDEST PUSH1 0x1 SLOAD PUSH0 SWAP1 PUSH1 0x1 PUSH1 0x1 PUSH1 0xA0 SHL SUB PUSH32 0x0 DUP2 AND SWAP2 PUSH4 0x9C42BD18 SWAP2 PUSH32 0x0 SWAP2 AND PUSH1 0x40 DUP1 MLOAD PUSH1 0x20 DUP2 ADD DUP9 SWAP1 MSTORE ADD PUSH1 0x40 MLOAD PUSH1 0x20 DUP2 DUP4 SUB SUB DUP2 MSTORE SWAP1 PUSH1 0x40 MSTORE PUSH1 0x40 MLOAD DUP5 PUSH4 0xFFFFFFFF AND PUSH1 0xE0 SHL DUP2 MSTORE PUSH1 0x4 ADD PUSH2 0x445 SWAP4 SWAP3 SWAP2 SWAP1 PUSH2 0x57C JUMP JUMPDEST PUSH1 0x20 PUSH1 0x40 MLOAD DUP1 DUP4 SUB DUP2 DUP7 GAS STATICCALL ISZERO DUP1 ISZERO PUSH2 0x460 JUMPI RETURNDATASIZE PUSH0 DUP1 RETURNDATACOPY RETURNDATASIZE PUSH0 REVERT JUMPDEST POP POP POP POP PUSH1 0x40 MLOAD RETURNDATASIZE PUSH1 0x1F NOT PUSH1 0x1F DUP3 ADD AND DUP3 ADD DUP1 PUSH1 0x40 MSTORE POP DUP2 ADD SWAP1 PUSH2 0x484 SWAP2 SWAP1 PUSH2 0x5A9 JUMP JUMPDEST SWAP3 SWAP2 POP POP JUMP JUMPDEST PUSH0 PUSH1 0x20 DUP3 DUP5 SUB SLT ISZERO PUSH2 0x49A JUMPI PUSH0 DUP1 REVERT JUMPDEST POP CALLDATALOAD SWAP2 SWAP1 POP JUMP JUMPDEST PUSH0 DUP1 PUSH1 0x40 DUP4 DUP6 SUB SLT ISZERO PUSH2 0x4B2 JUMPI PUSH0 DUP1 REVERT JUMPDEST DUP3 CALLDATALOAD PUSH8 0xFFFFFFFFFFFFFFFF DUP2 GT ISZERO PUSH2 0x4C8 JUMPI PUSH0 DUP1 REVERT JUMPDEST DUP4 ADD PUSH2 0x120 DUP2 DUP7 SUB SLT ISZERO PUSH2 0x4DA JUMPI PUSH0 DUP1 REVERT JUMPDEST SWAP2 POP PUSH1 0x20 DUP4 ADD CALLDATALOAD PUSH1 0x1 PUSH1 0x1 PUSH1 0xA0 SHL SUB DUP2 AND DUP2 EQ PUSH2 0x4F5 JUMPI PUSH0 DUP1 REVERT JUMPDEST DUP1 SWAP2 POP POP SWAP3 POP SWAP3 SWAP1 POP JUMP JUMPDEST PUSH0 DUP2 MLOAD DUP1 DUP5 MSTORE PUSH0 JUMPDEST DUP2 DUP2 LT ISZERO PUSH2 0x524 JUMPI PUSH1 0x20 DUP2 DUP6 ADD DUP2 ADD MLOAD DUP7 DUP4 ADD DUP3 ADD MSTORE ADD PUSH2 0x508 JUMP JUMPDEST POP PUSH0 PUSH1 0x20 DUP3 DUP7 ADD ADD MSTORE PUSH1 0x20 PUSH1 0x1F NOT PUSH1 0x1F DUP4 ADD AND DUP6 ADD ADD SWAP2 POP POP SWAP3 SWAP2 POP POP JUMP JUMPDEST PUSH1 0x1 PUSH1 0x1 PUSH1 0xA0 SHL SUB DUP5 AND DUP2 MSTORE PUSH1 0x60 PUSH1 0x20 DUP3 ADD DUP2 SWAP1 MSTORE PUSH0 SWAP1 PUSH2 0x566 SWAP1 DUP4 ADD DUP6 PUSH2 0x500 JUMP JUMPDEST SWAP1 POP PUSH4 0xFFFFFFFF DUP4 AND PUSH1 0x40 DUP4 ADD MSTORE SWAP5 SWAP4 POP POP POP POP JUMP JUMPDEST PUSH4 0xFFFFFFFF DUP5 AND DUP2 MSTORE DUP3 PUSH1 0x20 DUP3 ADD MSTORE PUSH1 0x60 PUSH1 0x40 DUP3 ADD MSTORE PUSH0 PUSH2 0x5A0 PUSH1 0x60 DUP4 ADD DUP5 PUSH2 0x500 JUMP JUMPDEST SWAP6 SWAP5 POP POP POP POP POP JUMP JUMPDEST PUSH0 PUSH1 0x20 DUP3 DUP5 SUB SLT ISZERO PUSH2 0x5B9 JUMPI PUSH0 DUP1 REVERT JUMPDEST POP MLOAD SWAP2 SWAP1 POP JUMP JUMPDEST PUSH0 DUP3 CALLDATALOAD PUSH2 0x17E NOT DUP4 CALLDATASIZE SUB ADD DUP2 SLT PUSH2 0x5D5 JUMPI PUSH0 DUP1 REVERT JUMPDEST SWAP2 SWAP1 SWAP2 ADD SWAP3 SWAP2 POP POP JUMP INVALID LOG2 PUSH5 0x6970667358 0x22 SLT KECCAK256 DUP4 0xAD SWAP6 0xCD PUSH6 0x1FECD95AFC5C 0xB4 DUP3 DUP11 0xBD 0x2F 0xFB SDIV 0xDE 0xBA 0x2A CALLDATASIZE 0xCA 0xDC PUSH26 0xE41C8F9CD10A2664736F6C634300081700330000000000000000 "
				},
				"gasEstimates": {
					"creation": {
						"codeDepositCost": "311400",
						"executionCost": "infinite",
						"totalCost": "infinite"
					},
					"external": {
						"BRIDGE_DOMAIN()": "infinite",
						"L2InboxAddress()": "2348",
						"MRU_DOMAIN()": "248",
						"mailbox()": "infinite",
						"optimismMessenger()": "2325",
						"postSubmit((uint256,bytes32,uint32,uint32,bytes32,bytes,(bytes,uint8),(bytes32,bytes32,bytes32,bytes32,bytes32,bytes32,uint256,uint256,bytes,bytes,bytes,uint256),(bytes32,bytes32,bytes32,bytes32,bytes32,bytes32,uint256,uint256,bytes,bytes,bytes,uint256)),address)": "infinite",
						"quoteSendRoot(bytes32)": "infinite",
						"sendRootToOptimism(bytes32)": "infinite",
						"sendRootToOptimismViaHyperlane(bytes32)": "infinite"
					}
				},
				"methodIdentifiers": {
					"BRIDGE_DOMAIN()": "f040627f",
					"L2InboxAddress()": "354a0509",
					"MRU_DOMAIN()": "5c40effd",
					"mailbox()": "d5438eae",
					"optimismMessenger()": "24205697",
					"postSubmit((uint256,bytes32,uint32,uint32,bytes32,bytes,(bytes,uint8),(bytes32,bytes32,bytes32,bytes32,bytes32,bytes32,uint256,uint256,bytes,bytes,bytes,uint256),(bytes32,bytes32,bytes32,bytes32,bytes32,bytes32,uint256,uint256,bytes,bytes,bytes,uint256)),address)": "9dd20277",
					"quoteSendRoot(bytes32)": "f128b528",
					"sendRootToOptimism(bytes32)": "5d86deb3",
					"sendRootToOptimismViaHyperlane(bytes32)": "7356d8b2"
				}
			},
			"storageLayout": {
				"storage": [
					{
						"astId": 33,
						"contract": "Hook.sol:Hook",
						"label": "optimismMessenger",
						"offset": 0,
						"slot": "0",
						"type": "t_contract(ICrossDomainMessenger)401"
					},
					{
						"astId": 35,
						"contract": "Hook.sol:Hook",
						"label": "L2InboxAddress",
						"offset": 0,
						"slot": "1",
						"type": "t_address"
					}
				],
				"types": {
					"t_address": {
						"encoding": "inplace",
						"label": "address",
						"numberOfBytes": "20"
					},
					"t_contract(ICrossDomainMessenger)401": {
						"encoding": "inplace",
						"label": "contract ICrossDomainMessenger",
						"numberOfBytes": "20"
					}
				}
			},
			"userdoc": {
				"kind": "user",
				"methods": {},
				"version": 1
			}
		}
	}
}